:020000040800F2
:1000000098090020A10100087B1700087715000857
:100010007917000839030008E51B000800000000FC
:100020000000000000000000000000006D18000843
:1000300053030008000000007D1700086F18000837
:10004000BB010008BB010008BB010008BB010008A0
:10005000BB010008BB010008BB010008BB01000890
:10006000BB010008BB010008BB010008BB01000880
:10007000BB010008BB010008BB010008BB01000870
:10008000BB010008BB010008BB010008BB01000860
:10009000BB010008BB010008BB010008BB01000850
:1000A000BB010008BB010008BB010008BB01000840
:1000B000BB010008BB010008BB010008BB01000830
:1000C000BB010008BB010008BB010008BB01000820
:1000D000BB010008D91B0008BB010008BB010008D8
:1000E00055030008BB010008BB010008BB01000864
:1000F000BB010008BB010008BB010008BB010008F0
:10010000BB010008BB010008BB010008BB010008DF
:10011000BB010008BB010008BB010008BB010008CF
:10012000BB010008BB010008BB010008BB010008BF
:10013000BB010008BB010008BB010008BB010008AF
:10014000BB010008BB010008BB010008BB0100089F
:10015000BB010008BB010008BB010008BB0100088F
:10016000BB010008BB010008BB010008BB0100087F
:10017000BB010008BB010008BB0100080000000033
:10018000BB010008BB010008DFF810D000F092F8B6
:1001900000480047D11D0008AFF3008098090020F7
:1001A0000648804706480047FEE7FEE7FEE7FEE711
:1001B000FEE7FEE7FEE7FEE7FEE7FEE709190008B7
:1001C000890100082DE9F05F0546002092469B4614
:1001D00088460646814640241BE02846414647465D
:1001E000224600F057F853465A46C01A914110D3A0
:1001F00011461846224600F03EF82D1A67EB01081A
:100200004F4622460120002100F035F817EB000987
:100210004E41201EA4F10104DFDC484631462A4647
:100220004346BDE8F09FD2B201E000F8012B491E21
:10023000FBD270470022F6E710B513460A46044683
:100240001946FFF7F0FF204610BD30B50B460146BA
:1002500000202022012409E021FA02F59D4205D365
:1002600003FA02F5491B04FA02F52844151EA2F10F
:100270000102F1DC30BD202A04DB203A00FA02F151
:10028000002070479140C2F1200320FA03F3194384
:1002900090407047202A04DB203A21FA02F0002126
:1002A000704721FA02F3D040C2F120029140084386
:1002B00019467047064C074D06E0E06840F0010320
:1002C00094E8070098471034AC42F6D3FFF760FF7C
:1002D000782900089829000810B50446D2B2C8B29F
:1002E000114601F0B3FE05480123D0E90012204673
:1002F00001F068FFBDE8104001F0BABE2C000020FC
:1003000010B50446D2B2C8B2114601F09FFE0848AB
:100310000023D0E90012204601F054FF01F0A8FEAE
:10032000BDE810404FF40051024800F020BA000030
:100330002C00002000100240FEE710B50021084606
:1003400001F084FE002001F0E5FDBDE8104001F061
:100350008FBE704710B54FF4006000F01BF94FF4EA
:10036000805000F017F9BDE810404FF4004000F055
:1003700011B990F83510022903D080214165012080
:100380007047052180F835100068016821F00101EF
:10039000016000207047000070B5044600F0F4F9D9
:1003A0000546601C02D004480078044400F0ECF9D3
:1003B000401BA042FAD370BD140000202DE9F05F6D
:1003C00005464FF480573946574800F0D0F90126CA
:1003D000564CB5F5004F02D0606850B127E0A660DA
:1003E0006168002001B16060216811B1C4E90001B9
:1003F0003DE00FF23C1B0FF2481A0FF258190FF2B2
:100400005C18FFF79AFF002211465846FFF764FF79
:100410000C2200215046FFF75FFF1E2200214846B4
:10042000FFF75AFF322200214046FFF755FFB5F58E
:10043000006F21D0BD421AD1002211465846FFF765
:100440004BFF0C2200215046FFF746FF1E220021E1
:100450004846FFF741FF322200214046FFF73CFFAC
:10046000322200214046FFF74BFF022020606068E7
:10047000A04601281BD034E0002211465846FFF761
:100480002BFF0C2200215046FFF726FF1E220021E1
:100490004846FFF721FF322200214046FFF71CFFAC
:1004A0001E2200214846FFF72BFF2660DFE72DA71D
:1004B0002FA633A534A4FFF740FF0022114638468B
:1004C000FFF70AFF0C2200213046FFF705FF1E222E
:1004D00000212846FFF700FF322200212046FFF7C7
:1004E000FBFED8F8040002281BD11EA624A526A4D2
:1004F000FFF723FF002211463046FFF7EDFE0B48C1
:100500000C2200210C30FFF7E7FE1E2200212846B6
:10051000FFF7E2FE2046BDE8F05F32220021FFF740
:10052000DBBEBDE8F09F0000001002403400002058
:10053000506C656173652053656C656374000000E1
:100540005573696E6720557020616E6420446F7723
:100550006E0000004D4F4445203100004D4F444592
:1005600020320000596F752043686F6F736500007B
:10057000202020202020204D4F44452031202100E4
:10058000546170204F4B0000546F20526574757297
:100590006E000000044910B50A68024202D00860EB
:1005A000FFF70CFF10BD0000143C01402DE9F84F8F
:1005B00000224FF0010803254FF00F0E0B6808FAD8
:1005C00002F42340A3426ED14E68012E05D0022EC4
:1005D00003D0112E01D0122E12D186684FEA420CA0
:1005E00005FA0CF7BE43CF6807FA0CF7374387606C
:1005F0004668A6430C79C4F3001494403443446025
:10060000C668570005FA07FC8C6826EA0C06BC4051
:100610003443C4604C68022C01D0122C13D1D4088E
:1006200000EB8404A346D4F8209054074FEAD46A20
:100630000EFA0AF629EA06090E6906FA0AF646EAE9
:100640000906CBF8206006680C7926EA0C0604F04F
:100650000304BC40344304604C68E40065D5364C68
:10066000266846F480462660246822F0030604F4D7
:1006700080440094314C3444A446D4F8084896078A
:10068000370F0EFA07F6B4432D4EB04201D10026C3
:1006900024E02C4EB04201D101261FE02A4EB04288
:1006A00002D102261AE040E0284EB04201D10326D2
:1006B00014E0274EB04201D104260FE0254EB0428F
:1006C00001D105260AE0244EB04201D1062605E0FC
:1006D000224EB04201D1072600E00826BE40264344
:1006E000CCF808681E4E34684F689C43FF0300D561
:1006F0001C4334601A4C241D26684F689E43BF0378
:1007000000D51E432660164E083634684F689C4359
:10071000FF0200D51C433460114E0C3634684F681C
:100720009C43BF0200D51C433460521C102AFFF4C6
:1007300045AFBDE8F88F000044380240003001406A
:10074000000002400004024000080240000C024089
:10075000001002400014024000180240001C024039
:10076000003C01400069084000D001207047426908
:1007700031EA020200D10904816170470AB1816146
:1007800070470904FBE700000148806870470000DB
:100790001400002070B5040025D094F83D00002519
:1007A00020B984F83C50204600F0B8F8242084F8A2
:1007B0003D002068016821F00101016020680168A6
:1007C00041F4004101602068016821F400410160AA
:1007D00000F00EFA4D4A6168914201D84C4900E0A0
:1007E0004C49884201D2012070BD4B492368B0FBBF
:1007F000F1F15E6826F03F060E435E606368934247
:1008000006D94FF4967359434FF47A73B1FBF3F161
:100810002368491C1E6A26F03F063143196261684D
:10082000914210D84900401EB0FBF1F2521CC2F3B5
:100830000B02042A01D2042022E0B0FBF1F0401C9C
:10084000C0F30B001CE0A268F2B301EBC10303EBA1
:100850000116431EB3FBF6F35B1C43F480431B05F8
:1008600049D092B301EBC10202EB0111401EB0FB73
:10087000F1F0401CC0F30B0040F4804040F4004015
:100880002168CA694CF6FF739A431043C861D4E9E2
:10089000071001432068026822F0C0021143016082
:1008A000D4E9030101432068826848F2FF339A4388
:1008B00011438160D4E9050108432168CA6822F028
:1008C000FF021043C86001E00EE016E020680168F6
:1008D00041F0010101602564202084F83D0025637A
:1008E00084F83E50002070BD01EB4106431EB3FB6F
:1008F000F6F35B1CB3E70120C2E701EB4101401EA8
:10090000B0FBF1F0401CC0F30B00B7E7A08601007C
:1009100080841E0000093D0040420F0010B586B0E3
:10092000044614216846FFF785FC14492068884274
:1009300021D11348016841F0020101600068694655
:1009400000F0020005904FF44060009012200190EA
:100950000120029003200390042004900948FFF72F
:1009600025FE07481030016841F4800101600068ED
:1009700000F48000059006B010BD00000058004053
:100980003038024000040240024881680278114475
:1009900081607047140000200B4810B5016841F4D5
:1009A00000710160016841F480610160016841F4F7
:1009B00080710160032000F06FF8002000F006F85D
:1009C00000F024F8002010BD003C024070B50D4D31
:1009D00004464FF47A712878B1FBF0F00A490968AF
:1009E000B1FBF0F000F058FC48B9102C07D20022FF
:1009F0002146501E00F030F800206C6070BD0120D0
:100A000070BD000014000020200000200A4808B536
:100A1000016841F480410160006800F4804000906A
:100A20000548001F016841F080510160006800F036
:100A30008050009008BD000044380240002809DBC7
:100A400000F01F02012191404009800000F1E020E8
:100A5000C0F8001170470000F0B40E4B1B680C4644
:100A6000C3F30223C3F10705042D00D90425191D82
:100A7000072901D2002300E0DB1E012606FA05F15A
:100A8000491E214099409E40761E16403143F0BCDD
:100A900001F0BEB80CED00E0064900F0070208685E
:100AA0004FF6FF03184040EA0220034A1043086053
:100AB000704700000CED00E00000FA052DE9F0475A
:100AC0000E46050065D0DFF81481D8F80000F7B2B3
:100AD00000F00F00B04207D288F80070D8F800008C
:100AE00000F00F00B04254D128683D4C810712D568
:100AF000400703D5206840F4E050206028780007C4
:100B000003D5206840F4604020602068A96820F088
:100B1000F000084320602878C0072DD0304968686D
:100B20000839012812D0022813D0032811D00968EF
:100B3000890700292DDA216821F003010143216092
:100B4000FFF722FE814641F2883A0EE009688903E8
:100B5000EFE709688901ECE7FFF716FEA0EB090152
:100B6000514502D90320BDE8F0872068696800F08C
:100B70000C00B0EB810FEFD1D8F80010404601F027
:100B80000F01B14207D90770006800F00F00B042B2
:100B900001D00120E7E72878400705D52068E968FB
:100BA00020F4E050084320602878000706D520682C
:100BB000296920F4604040EAC100206000F038F864
:100BC0002168084AC1F30311515CC8400649086016
:100BD00006480068FFF7FAFE0020C4E7003C024028
:100BE00008380240F02100082000002018000020F2
:100BF0000448054900680968044AC1F38221515C30
:100C0000C840704720000020083802400022000839
:100C10000448054900680968044AC1F34231515C3F
:100C2000C840704720000020083802400022000819
:100C3000154810B5006810F00C02144813D041108C
:100C4000042A0FD0082A0ED10F4C241F22682368D3
:100C500002F03F025B0207D52068C0F38810A0FBBA
:100C6000010106E0084610BD2168C1F38811A1FB0F
:100C700000010023FFF7A6FA2168C1F30141491CD6
:100C80004900B0FBF1F010BD083802400024F40028
:100C90002DE9F84F04006ED02078DFF83C93C007B0
:100CA000A9F104054AD009F104000168C1F38101EA
:100CB000012908D00068C0F3810002280AD1D9F8C0
:100CC0000000400206D52868800337D560680028F8
:100CD000E1D033E06068B0F5803F10D0B0F5A02FD0
:100CE000286810D020F480302860286820F4802004
:100CF00028606068A8B1FFF747FD06460DE0286848
:100D000040F48030F4E740F480202860F7E700BF2B
:100D1000FFF73AFD801B642873D828688003F7D555
:100D20000CE0FFF731FD064605E000BFFFF72CFDA4
:100D3000801B6428F0D828688003F7D42078DFF877
:100D40009C8280074FF0000A3ED5A348001D016831
:100D500011F00C0F08D00068C0F3810002280BD1FD
:100D6000D9F80000400207D42868800716D5E0684B
:100D7000012800D112E02BE1E068B8B10120C8F8E9
:100D80000000FFF701FD064605E000BFFFF7FCFC91
:100D9000801B0228C0D828688007F7D528682169F9
:100DA00020F0F80040EAC10028600DE0C8F800A07B
:100DB000FFF7EAFC064604E0FFF7E6FC801B02288A
:100DC0001FD828688007F7D42078000722D5824EE4
:100DD00083486169703671B101210160FFF7D4FC6D
:100DE000074604E0FFF7D0FCC01B022809D8306892
:100DF0008007F7D50EE0C0F800A0FFF7C5FC074656
:100E000005E082E0FFF7C0FCC01B02287DD83068F7
:100E10008007F7D42078400768D5DFF8BCB10027F9
:100E20000BF13C0BDBF80000C0000BD4DBF800102A
:100E300041F08051CBF80010DBF80000012700F0F2
:100E400080500090674E3068C00510D4306840F480
:100E500080703060FFF798FC009005E0FFF794FC8D
:100E60000099401A022850D83068C005F6D55A4E6D
:100E7000A0686C3601280FD00528306810D020F00B
:100E800001003060306820F004003060A068B8B124
:100E9000FFF77AFC00900FE0306840F00100F4E7C3
:100EA00040F004003060F7E7FFF76EFC0099411A4C
:100EB00041F28830814266D830688007F4D50EE070
:100EC000FFF762FC009007E0FFF75EFC0099411A13
:100ED00041F28830814256D830688007F4D42FB16F
:100EE000DBF8001021F08051CBF80010A069C8B3E6
:100EF0003949091D0968C1F3810102294AD0022834
:100F0000504607D0C8F8600000E03CE0FFF73CFC2A
:100F100004463BE04746C8F86000FFF735FC06464C
:100F200005E000BFFFF730FC801B02282BD82868A3
:100F30008001F7D4D4E907010843A16A2A4A490885
:100F400002EB0141626A41EA8211084394F82C10D5
:100F500040EA0161C9F8001001203866FFF714FC6F
:100F6000044606E036E000BFFFF70EFC001B022837
:100F700009D828688001F7D52CE000BFFFF704FCF2
:100F8000001B022802D90320BDE8F88F28688001E1
:100F9000F4D41FE00128F7D0D9F80000E26900F48A
:100FA0008001914214D1226A00F03F0191420FD199
:100FB00047F6C071626A0140914209D1A26A00F409
:100FC0004031914204D1E16A00F07060884201D062
:100FD0000120D9E70020D7E704380240000047424B
:100FE000800E4742007000400000FFFF70B5040013
:100FF00005D00025A56294F8510010B106E001204B
:1010000070BD84F85050204600F030F8022084F87B
:1010100051002068016821F040010160D4E901011C
:101020000843D4E903121143084361690843218B43
:1010300001F400710843E1690843216A0843A16A89
:10104000084321680860A069042101EA1040616A30
:101050000843216848602068C16921F40061C161CA
:101060006565012084F85100002070BDF0B587B09F
:10107000044614216846FFF7DDF82C492A4F2368FF
:1010800000242A4A1039022503262948BB422AD1C6
:10109000136843F480431360126802F4804205929F
:1010A0000A6842F004020A600A6802F0040205922B
:1010B0000A6842F002020A60096802AB01F002010C
:1010C00005910821CDE90015052783E8D000694680
:1010D000FFF76CFA2803CDE9000502AB694683E807
:1010E000D00014481BE0144FBB421AD1136843F4DC
:1010F00000431360126802F4004205920A6842F04D
:1011000004020A600968029401F0040105914FF499
:10111000E051CDE900150621CDE903616946FFF7ED
:1011200045FA07B0F0BD00000038004040380240EA
:101130000008024000040240003C00402DE9F84F46
:10114000044690F8500000271D461646894601289F
:101150000DD04FF0010B84F850B0FFF715FB80461F
:1011600094F85100BA46012804D002278EE00220EC
:10117000BDE8F88FB9F1000F7DD0002E7BD00320A1
:1011800084F85100C4F854A0C4F83090A686E686CE
:10119000C4F838A0A4F83CA0A4F83EA0C4F844A029
:1011A000C4F840A0A068B0F5004F04D120680168E1
:1011B00041F48041016020680168490603D4016858
:1011C00041F040010160E068B0F5006F606803D055
:1011D00030B3012E24D040E008B1012E1CD1206B89
:1011E00021680088C86006E020688168890709D501
:1011F000216B0988C160206B801C2063E08E401E3B
:10120000E08609E0FFF7C0FAA0EB0800A84202D38D
:10121000681C01D031E07DB3E08E0028E4D11FE0EE
:10122000206B21680078087306E0206881688907D0
:1012300009D5216B09780173206B401C2063E08E77
:10124000401EE08609E0FFF79FFAA0EB0800A842E5
:1012500002D3681C01D010E075B1E08E0028E4D103
:1012600042462946204600F08BFA08B120206065EE
:10127000A06820B107E008E0FFE7032706E0206848
:10128000C16880680090606D00B1012784F851B09A
:1012900084F850A038466BE710B5401EB0F1807F4F
:1012A00001D3012010BD4FF0E02460610F216017D1
:1012B00000F0AEFC0020A06107202061002010BDDE
:1012C0007047000070B5026804461068D168536921
:1012D00010F00F0F52D003F0010501F490762E4369
:1012E0005FD0C20705D0CA0503D5E26B42F0010208
:1012F000E263420705D5DA0703D0E26B42F002024F
:10130000E263820705D5DA0703D0E26B42F00402FC
:10131000E263020707D501F020022A4303D0E26B03
:1013200042F00802E263E26B002A33D0800604D563
:10133000880602D5204600F00BFB20684069E16B6F
:10134000C0F38010090700D428B3204600F0F2FA59
:101350002068416949061AD5416921F0400141617F
:10136000606BA0B11B490165606BFFF702F80028B4
:1013700010D0606B016DBDE870400847830610D542
:101380008B060ED52046BDE8704000F0E1BA20463D
:10139000FFF796FF70BD2046FFF792FF0020E06345
:1013A00070BD030606D50B0604D52046BDE8704087
:1013B00000F0AEBB4006F3D54806F1D5D168204613
:1013C00021F04001D160202184F8391000F0D2F8DA
:1013D00070BD00002519000870B5040004D094F811
:1013E0003900002510B106E0012070BD84F83850A6
:1013F000204600F023F8242084F839002068C168D2
:1014000021F40051C160204600F0EEFA2068016925
:1014100021F4904101612068416921F02A01416174
:101420002068C16841F40051C160E563202084F860
:10143000390084F83A00002070BD000010B586B075
:10144000044614216846FEF7F5FE184920688842D4
:1014500029D117480021026842F01002026000689A
:1014600000F01000059012481438026842F00102A2
:101470000260006800F0010005904FF4C060009029
:101480000220CDE901010320039007200490694662
:101490000848FFF78BF8002202212520FFF7DCFA2D
:1014A0002520FFF7CBFA06B010BD00000010014068
:1014B000443802400000024070472DE9F8430446DA
:1014C00090F839001F4616460D46202850D1B5B178
:1014D000AEB194F8380001284AD0012084F83800D1
:1014E0004FF00008C4F83C80212084F83900FFF751
:1014F0004BF9A6848146E68484F8388026E00120F2
:10150000BDE8F883E08C401EE084A0684B46B0F54F
:10151000805F4FF000024FF080012046009703D01B
:1015200000F027FBE8B90DE000F023FBC8B92888DC
:101530002168C0F308004860206908B16D1C05E00F
:10154000AD1C03E0216815F8010B4860E08C002811
:10155000D8D14B46002240212046009700F009FBDD
:1015600008B10320CCE7202084F839000020C7E729
:101570000220C5E77047FEE770B50C460546FFF749
:10158000F1F838B96420FEF707FF21462846FFF737
:10159000E9F808B1002070BD21462846FFF7E2F8BF
:1015A0000028F9D0012070BD2DE9F04786B0142144
:1015B0006846FEF73FFE49480025016841F01001EA
:1015C0000160016801F010010591016841F080019E
:1015D0000160016801F080010591016841F004019A
:1015E0000160016801F004010591016841F0010109
:1015F0000160016801F001010591016841F00201FB
:101600000160016801F002010591016841F00801E3
:1016100001600068324F00F008004FF2FF040590AF
:10162000012221463846FFF7A9F8DFF8B8800022EA
:1016300010214046FFF7A2F8DFF8AC904FF4407657
:10164000012231464846FFF799F8DFF8A0A00122B1
:1016500007215046FFF792F8009401246946384666
:101660000194CDE90245FEF7A1FF1020CDE9000469
:1016700069464046CDE90245FEF798FF4FF4184011
:1016800000901B48CDE9010569465046FEF78EFFE4
:1016900046F23000CDE90005694602945046FEF757
:1016A00085FFCDE9006469464846CDE90245FEF76D
:1016B0007DFF0720CDE9000469465046CDE902458B
:1016C000FEF774FF002206212820FFF7C5F9282025
:1016D000FFF7B4F906B0BDE8F087000030380240EB
:1016E000001002400000024000080240000C0240CE
:1016F000000011100F4810B50D4901604FF48271C0
:1017000041604FF4004181600021C1604FF40072DC
:101710000161C0E90512C1610162416281620A2171
:10172000C162FFF763FC002801D072B6FEE710BD6E
:1017300000380040A80000200E4810B50C49016098
:101740004FF48271416000218160C1604FF40072EA
:101750000161C0E90512C1610162416281620A2131
:10176000C162FFF743FC002801D072B6FEE710BD4E
:10177000003C004000010020FEE7FEE7704700004B
:1017800038B504461248134B0068B0FBF3F04FF431
:101790007A73584300906068B0F5827F0DD10B4694
:1017A000009200228021204600F016F870B1606D92
:1017B00040F020006065032038BD009830B1401E25
:1017C000009020688068C0430006F6D5002038BD30
:1017D0002000002000366E012DE9F0411D4617461D
:1017E0000E460446DDF8188008E0681C06D0FEF7B7
:1017F000CBFFA0EB0800A8420BD255B1206880684F
:1018000036EA000030D00020B842EED10020BDE81A
:10181000F0812068416821F0E00141606068B0F526
:10182000827F0BD1A068B0F5004F02D0B0F5806F79
:1018300004D12068016821F040010160A06AB0F580
:10184000005F09D12068016821F40051016020681F
:10185000016841F400510160012084F8510000202A
:1018600084F850000320D2E70120CDE77047FFF74E
:101870008BB8000030B593B030216846FEF7DAFC33
:1018800014210CA8FEF7D6FC1D480025016841F084
:1018900080510160006800F0805011901948016883
:1018A00041F4804101600068022400F480401190FE
:1018B00001200090000401908001CDE9064008AAB3
:1018C0000420A82182E813000B906846FFF7E0F996
:1018D00008B172B6FEE70CA90F2081E831004FF481
:1018E000A0500F904FF48050109005210CA8FFF7E6
:1018F000E5F8002801D072B6FEE713B030BD000055
:1019000040380240007000400548016841F4700111
:10191000016003494FF000608039086070470000A3
:1019200088ED00E010B5806B0021C185C184FFF710
:10193000C7FC10BD0168CA6822F49072CA600168D1
:101940004A6922F001024A61202180F83A1070476A
:1019500010B590F83A10222901D0022010BD8168FC
:10196000B1F5805F11D00169002901681FD0496875
:1019700001F07F03816A4A1C82620B70C18D491E8F
:101980000904090CC18518D02BE00269816A002A7C
:101990000268526805D0D2B20A80816A491C81620D
:1019A000ECE7C2F308020A80816A891CF7E74A68FB
:1019B000816A4B1C83620A70E0E70168CA6822F002
:1019C0002002CA600168CA6822F48072CA60016895
:1019D0004A6922F001024A61202180F83A10FFF79B
:1019E0006BFD002010BD00002DE9F04104460068A9
:1019F0000169E26821F44051114301612169A06845
:101A0000E26908436169114308432168CA6849F2E1
:101A10000C639A430243CA6020684169A26921F4B9
:101A2000407111434161E069192764253226B0F500
:101A3000004F354A354920684FF0000806D08842EB
:101A400001D0904236D1FFF7E3F835E0884201D06B
:101A5000904202D1FFF7DCF801E0FFF7C9F86168B6
:101A60004A18A0FB070148EB0803FEF7ABFB014651
:101A7000B0FBF5F00201B1FBF5F06FF0180358432D
:101A800001EB800006EBC000B0FBF5F000F0F800C1
:101A900002EB4002B1FBF5F0584301EB800006EB8E
:101AA000C000B0FBF5F000F007002168104488602A
:101AB000BDE8F081FFF79CF861688B0F8A00A0FBFE
:101AC0000701FEF77FFB0146B0FBF5F06FF018024F
:101AD000504301EB800006EB0010B0FBF5F000F086
:101AE000F002B1FBF5F002EB0012B1FBF5F06FF084
:101AF0001803584301EB800006EB0010B0FBF5F033
:101B000000F00F00D1E70000001401400010014078
:101B100090F83910212901D0022070478168B1F571
:101B2000805F016A0BD04A1C02620268097851602A
:101B3000C18C491E0904090CC1840ED017E0098824
:101B40000268C1F30801516001690029016A02D0ED
:101B5000491C0162ECE7891CFBE70168CA6822F0B6
:101B60008002CA600068C16841F04001C160002085
:101B700070472DE9F041984617460E460446069DEB
:101B80001DE0681C1BD02DB1FEF7FEFDA0EB080088
:101B9000A84214D92068C16821F4D071C1602068BE
:101BA000416921F001014161202084F8390084F865
:101BB0003A00002084F838000320BDE8F081206856
:101BC000006836EA000004D00020B842D9D00020D6
:101BD000F3E70120F9E700000148FFF773BB0000BD
:101BE00058010020FEE700000FB4084B10B504A90F
:101BF00002AA039800F02CF8044602A9002000F085
:101C0000D1F8204610BC5DF814FB0000A51D0008AB
:101C10000907090E002804DB00F1E02080F8001419
:101C2000704700F00F0000F1E02080F8141D7047AD
:101C300002E008C8121F08C1002AFAD17047704795
:101C4000002001E001C1121F002AFBD170470000F3
:101C50002DE9FF4F89B09B460446002506E0252864
:101C60000BD05A460B999047641C6D1C20780028B5
:101C7000F5D10DB02846BDE8F08F0027B846012207
:101C8000474900E0074314F8013F203B02FA03F004
:101C90000842F7D120782E2819D114F8010F47F007
:101CA00004072A280ED06FF02F022078A0F130010F
:101CB00009290CD808EB880102EB410100EB01086F
:101CC000641CF2E70A98641C50F8048B0A90207890
:101CD0000028CED0642808D0692806D075281ED0E8
:101CE0005A460B9990476D1C58E00A994FF00A0923
:101CF00001C90A91002802DA40422D2102E039058B
:101D000004D52B218DF82010012103E0F90704D020
:101D10002021F7E78A4608AE0DE00021FAE70A998C
:101D20004FF00A0901C90A91F7E74946FEF78DFA13
:101D3000303106F8011D0028F7D1ADEB060000F1A7
:101D40002009780701D44FF00108C84502DDA8EB4F
:101D5000090000E000208046002706E008A85A4657
:101D6000C05D0B9990476D1C7F1C5745F6DB04E066
:101D700030205A460B9990476D1CB8F10001A8F12C
:101D80000108F5DC05E016F8010B5A460B9990475F
:101D90006D1CB9F10001A9F10109F4DC641C65E7CF
:101DA000092801000A68531C0B601070704700007E
:101DB00010B54FF6FF730C2203490448FFF77DFB73
:101DC000BDE8104000F0B6B808000020580100201F
:101DD000FEF7E2FDFFF74EFDFFF7E6FB2E482D492B
:101DE000002401604FF4E131C0E901140C21C4600A
:101DF000C0E904418461C461FFF7EEFA08B172B62C
:101E0000FEE72748254901602649C0E901144FF43F
:101E10008041C0E9034144618461C4610462FEF70A
:101E2000B9FC08B172B6FEE7FFF764FCFFF784FC6B
:101E3000FFF7BEFF214C1CA0002211466060FEF798
:101E40004BFA1FA00A2200216060FEF745FA4FF40A
:101E5000FA70FEF7A1FA1C4D1C4F4FF400561021EA
:101E60002846FFF789FB0028F9D031463846FEF7AF
:101E70007EFC22680A4802F5FA7215A11438226025
:101E8000FFF7B2FE06480C2200211438FEF724FAB0
:101E9000E5E7000000100140580100200058004014
:101EA00054000020A08601005072657373204F4BD0
:101EB00020746F206368616E67652E00000000204B
:101EC0006D6F64652E000000000C0240001002409F
:101ED0002564000070B5802813D2402911D20B4B25
:101EE000012401F007051E79AC40094BC90800EB3D
:101EF000C1100EB132B101E0012A03D0195CA14337
:101F0000195470BD195C2143FAE700002400002039
:101F10009801002010B5064A00214FF4806328B1D3
:101F2000FF245454491C9942F9D310BD0024F8E70A
:101F30009801002010B500F063F86420FEF72CFA39
:101F4000002000F089F8202000F0FEF8002000F0CA
:101F5000FBF8B02000F0F8F8C82000F0F5F80020F9
:101F600000F0F2F8102000F0EFF8402000F0ECF85C
:101F7000FF2000F061F8A12000F0E6F8A72000F0B3
:101F8000E3F8A82000F0E0F83F2000F0DDF8A420FE
:101F900000F0DAF8D32000F0D7F8002000F0D4F8F1
:101FA000D52000F0D1F8F02000F0CEF8D92000F0D4
:101FB000CBF8222000F0C8F8DA2000F0C5F8122093
:101FC00000F0C2F8DB2000F0BFF8202000F0BCF8E1
:101FD0008D2000F0B9F8142000F0B6F8012000F0D0
:101FE0003BF80020FFF796FF00F042F8034800217D
:101FF000018041800121417110BD000024000020BA
:1020000010B50C4C012211462046FEF7B7FB00220A
:1020100004212046FEF7B2FB0A20FEF7BDF901229B
:1020200004212046FEF7AAFBBDE810400A20FEF777
:10203000B3B90000000C024010B50446812000F046
:1020400083F82046BDE8104000F07EB8014A1080B9
:102050005180704724000020044910B1AF200122B4
:1020600001E0AE2000228A7100F06EB8240000204A
:1020700070B50C4D002400BF04F1B000C0B200F0F8
:1020800063F8002000F060F8102000F05DF805EB28
:10209000C410802100F076F8641CE4B2082CEBD365
:1020A00070BD0000980100202DE9FF4F9346009875
:1020B000A0F1200ABAF15F0F0CD22248CEB20288FA
:1020C0003244802A06D881464088C1F30727384425
:1020D000402803D9002004B0BDE8F08F002525E09A
:1020E0001AFB07513BF8118000241CE008FA04F0A9
:1020F000000409D599F8021099F8000029442044F9
:10210000C9B2C0B2039A0BE00398C0B15FF00002FD
:1021100099F8021099F8000029442044C9B2C0B2CD
:10212000FFF7D8FE641CA642E0D86D1CAF42D7D89A
:10213000B9F800103144A9F800100098CBE701224B
:10214000E6E700002400002031B50C4C00220121FC
:102150002046FEF713FB002202212046FEF70EFB6D
:102160004FF0FF33012269460548FEF7E7FF0122E1
:1021700011462046FEF702FB38BD0000000C02406D
:10218000A800002070B50D4E0D4604460022012126
:102190003046FEF7F3FA012202213046FEF7EEFA4E
:1021A000AAB24FF0FF3321460548FEF7C7FF30467D
:1021B000BDE8704001221146FEF7E0BA000C024073
:1021C000A8000020F0B51D460E46174604460AE05A
:1021D0002B463A463146FFF767FF2178884201D007
:1021E000C8B2F0BD641C20780028F1D1C0B2F0BDA7
:1021F00000000000000000000102030406070809B7
:1022000000000000010203040000000000000000C4
:10221000000000000000000000000000001000109E
:10222000001000100010001000000010000000005E
:102230000028002800280000000000000000000026
:102240000000000000240024007C00240048007CE2
:1022500000480048000000000038005400500038DA
:1022600000140054005400380010000000200054F6
:10227000005800300028005400140008000000003E
:1022800000100028002800100034004800480034E6
:10229000000000000010001000100000000000000E
:1022A00000000000000000000008001000200020D6
:1022B0000020002000200020001000080020001056
:1022C00000080008000800080008000800100020AE
:1022D000001000380010002800000000000000007E
:1022E000000000000000000000100010007C001042
:1022F00000100000000000000000000000000000CE
:10230000000000000000001000100010000000009D
:102310000000000000000038000000000000000085
:10232000000000000000000000000000000000109D
:10233000000000000008000800100010001000104D
:102340000020002000000000003800440044005439
:102350000044004400440038000000000010003039
:1023600000500010001000100010001000000000CD
:102370000038004400440004000800100020007CE5
:1023800000000000003800440004001800040004AD
:102390000044003800000000000800180028002851
:1023A0000048007C0008000800000000007C00409D
:1023B00000400078000400040044003800000000E1
:1023C00000380044004000780044004400440038D5
:1023D00000000000007C0004000800100010002035
:1023E00000200020000000000038004400440038B5
:1023F000004400440044003800000000003800445D
:1024000000440044003C0004004400380000000088
:10241000000000000010000000000000000000109C
:10242000000000000000000000000010000000009C
:10243000000000100010001000000000000C003030
:1024400000400030000C0000000000000000000010
:102450000000007C0000007C000000000000000084
:102460000000000000600018000400180060000078
:1024700000000000003800440004000800100010B4
:10248000000000100000000000380044004C005420
:10249000005C0040004000380000000000100028F0
:1024A000002800280028007C0044004400000000B0
:1024B0000078004400440078004400440044007860
:1024C0000000000000380044004000400040004090
:1024D0000044003800000000007000480044004440
:1024E000004400440048007000000000007C0040F0
:1024F0000040007C004000400040007C00000000E4
:10250000007C004000400078004000400040004057
:10251000000000000038004400400040005C00441F
:102520000044003800000000004400440044007CE7
:102530000044004400440044000000000038001043
:102540000010001000100010001000380000000003
:1025500000040004000400040004000400440038E7
:102560000000000000440048005000600050004897
:1025700000480044000000000040004000400040CF
:10258000004000400040007C000000000044006C5F
:10259000006C00540044004400440044000000006B
:1025A00000440064006400540054004C004C00449B
:1025B000000000000038004400440044004400448F
:1025C000004400380000000000780044004400444B
:1025D0000078004000400040000000000038004447
:1025E000004400440044004400540038000400004B
:1025F000007800440044004400780048004800444B
:1026000000000000003800440040003000080004D2
:102610000044003800000000007C00100010001092
:1026200000100010001000100000000000440044E2
:10263000004400440044004400440038000000000E
:102640000044004400440028002800280010001026
:102650000000000000440044005400540054006C8A
:102660000028002800000000004400280028001076
:10267000001000280028004400000000004400442E
:1026800000280028001000100010001000000000BA
:10269000007C000400080010001000200040007CB6
:1026A00000000000001800100010001000100010C2
:1026B0000010001000100018002000200010001072
:1026C000001000100008000800000000003000109A
:1026D000001000100010001000100010001000305A
:1026E0000010002800280044000000000000000046
:1026F00000000000000000000000000000000000DA
:1027000000000000000000FE00200010000000009B
:1027100000000000000000000000000000000000B9
:1027200000380044003C0044004C0034000000002D
:102730000040004000580064004400440064005819
:10274000000000000000000000380044004000408D
:102750000044003800000000000400040034004C75
:1027600000440044004C0034000000000000000061
:1027700000380044007C00400044003800000000A5
:10278000000C0010007C0010001000100010001061
:1027900000000000000000000034004C0044004431
:1027A000004C0034000400780040004000580064F1
:1027B00000440044004400440000000000100000F9
:1027C0000070001000100010001000100000000049
:1027D0000010000000700010001000100010001029
:1027E000001000E000400040004800500060005031
:1027F00000480044000000000070001000100010AD
:102800000010001000100010000000000000000088
:10281000007800540054005400540054000000009C
:1028200000000000005800640044004400440044DC
:102830000000000000000000003800440044004494
:102840000044003800000000000000000058006450
:1028500000440044006400580040004000000000B4
:102860000034004C00440044004C003400040004D8
:10287000000000000058006400400040004000409C
:102880000000000000000000003800440030000894
:1028900000440038000000000020002000780020E4
:1028A00000200020002000180000000000000000B0
:1028B0000044004400440044004C00340000000088
:1028C00000000000004400440028002800280010F8
:1028D0000000000000000000005400540054006C90
:1028E000002800280000000000000000004400282C
:1028F000001000100028004400000000000000004C
:10290000004400440028002800100010001000605F
:1029100000000000007C0008001000200040007C47
:10292000000000000018001000100010002000201F
:10293000001000100010001800100010001000100F
:1029400000100010001000100010001000300010E7
:1029500000100010000800080010001000100030E7
:102960000000000000000074004C000000000000A7
:10297000000000006F6B0000982900080000002094
:1029800034000000301C0008CC290008340000206E
:1029900064090000401C00080000000074290008C1
:1029A00054657374696E67210A000000010000001D
:1029B00010000000000000000024F40000000000EF
:0C29C00000000000070A000008220008C8
:040000050800018965
:00000001FF
