:020000040800F2
:10000000D0090020A1010008C31A0008ED1800085B
:10001000C11A0008450800083D2200080000000041
:10002000000000000000000000000000291F000880
:100030005F08000800000000C51A00082B1F000818
:10004000BB010008BB010008BB010008BB010008A0
:10005000BB010008BB010008BB010008BB01000890
:10006000BB010008BB010008BB010008BB01000880
:10007000BB010008BB010008BB010008BB01000870
:10008000BB010008BB010008BB010008BB01000860
:10009000BB010008BB010008BB010008BB01000850
:1000A000BB010008BB010008BB010008BB01000840
:1000B000BB010008BB010008BB010008BB01000830
:1000C000BB010008BB010008BB010008BB01000820
:1000D000BB01000831220008BB010008BB01000879
:1000E00061080008BB010008BB010008BB01000853
:1000F000BB010008BB010008BB010008BB010008F0
:10010000BB010008BB010008BB010008BB010008DF
:10011000BB010008BB010008BB010008BB010008CF
:10012000BB010008BB010008BB010008BB010008BF
:10013000BB010008BB010008BB010008BB010008AF
:10014000BB010008BB010008BB010008BB0100089F
:10015000BB010008BB010008BB010008BB0100088F
:10016000BB010008BB010008BB010008BB0100087F
:10017000BB010008BB010008BB0100080000000033
:10018000BB010008BB010008DFF810D000F020FB25
:10019000004800473D2B0008AFF30080D009002045
:1001A0000648804706480047FEE7FEE7FEE7FEE711
:1001B000FEE7FEE7FEE7FEE7FEE7FEE7C51F0008F5
:1001C000890100082DE9F05F0546002092469B4614
:1001D00088460646814640241BE02846414647465D
:1001E000224600F00EFA53465A46C01A914110D3E7
:1001F00011461846224600F0F5F92D1A67EB010862
:100200004F4622460120002100F0ECF917EB0009CF
:100210004E41201EA4F10104DFDC484631462A4647
:100220004346BDE8F09FD2B201E000F8012B491E21
:10023000FBD270470022F6E710B513460A46044683
:100240001946FFF7F0FF204610BD2DE9FE4F80460E
:1002500081EA0300C00F0C46009021F0004123F01A
:100260000045B8EB0200A94105D240462146904620
:100270001C460B46024623F00040104347D0270D92
:10028000C7F30A00C3F30A510290401A01904028B4
:100290006BDAC3F3130040F4801B0098924620B140
:1002A0000023D2EB030A63EB0B0B01985946C0F114
:1002B0004002504600F096F906460D465046594613
:1002C000019A00F0AEF910EB08006141002487EAC2
:1002D000115284EAE7731A4340D0009A62B3019A3C
:1002E000012A4FEA075215DC001B61EB02014FF0B7
:1002F000004202EA0752CDE90042001C41F580119C
:1003000032462B4600F0E5F903B0BDE8F08F4046D9
:100310002146F9E7001B61EB0201001C41F5801347
:1003200000185B412018A2F5001747EB030140EAD3
:10033000D570B6196D4111E06D084FEA360645EAF1
:10034000C0754FEA0752001B61EB0201001C41F52A
:10035000801149084FEA30000019514132462B46BE
:1003600003B0BDE8F04F00F0A5B9009801224000AD
:100370000023D0EB020263EBE073009821464FEAC2
:10038000E074B8EB000061EB0401E9E783F000439F
:100390005BE781F0004158E72DE9FE4F81EA030455
:1003A00004F0004421F0004100944FF0000B23F0D2
:1003B000004350EA01045ED052EA03045BD0C3F369
:1003C0000A54C1F30A552C44A4F2F3340194A0FB5F
:1003D0000254C1F3130141F48011C3F3130343F436
:1003E000801301FB024400FB034E840A970A44EA8F
:1003F000815447EA8357A4FB076802958D0A05FBE1
:1004000007854FEA932C04FB0C542705029D4FEA05
:10041000065847EA1637B5EB08056EEB070C870E52
:10042000920E47EA811742EA8312A7FB0201B6EB5C
:100430000B0164EB00042B0D43EA0C335E1844EB14
:100440001C50DA465146E7FB0201C5F313044FEA9C
:100450000B3343EA14534FEA0432019C43EA060388
:10046000A4F10C040294009CCDE900B400F031F931
:1004700003B0BDE8F08F00200146F9E72DE9F04D0B
:1004800081EA030404F0004B21F0004514464FF0CC
:10049000000A23F0004150EA050220D054EA01028C
:1004A0001DD0C5F30A570246C5F31303C1F3130069
:1004B000C1F30A5640F4801543F48013A7EB0608F5
:1004C000101BD64608F2FD3873EB050002D308F185
:1004D000010801E092185B41B8F1000F03DA002037
:1004E0000146BDE8F08D00204FF480110646844699
:1004F0000EE0171B73EB050705D3121B63EB050317
:1005000006434CEA010C49084FEA300092185B415F
:1005100050EA0107EDD152EA030012D082EA04004A
:1005200083EA0501084305D0101BAB4106D2012226
:10053000002306E000224FF0004302E06FF00102CA
:1005400053101AEB06004CEB085110EB0A0041EB7C
:100550000B01BDE8F04D00F0ADB800F0004230F006
:1005600000400AD0C10D01F56071C0F3160042EAE7
:100570000151C208400711437047002001467047EF
:1005800001F0004330B421F0004150EA010206D0EE
:100590000A0DA2F56072C1F31301002A02DC30BC1F
:1005A00000207047440F44EAC104C100E01830BC89
:1005B00000EBC25000F047B830B50B4601460020B2
:1005C0002022012409E021FA02F59D4205D303FA15
:1005D00002F5491B04FA02F52844151EA2F1010296
:1005E000F1DC30BD202A04DB203A00FA02F10020C1
:1005F00070479140C2F1200320FA03F31943904061
:100600007047202A04DB203A21FA02F000217047CB
:1006100021FA02F3D040C2F120029140084319466A
:100620007047202A06DBCB17203A41FA02F043EA52
:10063000E07306E041FA02F3D040C2F1200291409B
:100640000843194670470029A8BF7047401C49005D
:1006500008BF20F00100704710B4B0FA80FC00FA27
:100660000CF050EA010404BF10BC704749B1CCF152
:10067000200421FA04F411FA0CF118BF01212143DE
:100680000843A3EB0C01CB1D4FEA00614FEA102099
:1006900042BF002010BC704700EBC350104400293B
:1006A000A4BF10BC7047401C490008BF20F00100E7
:1006B00010BC704710B5141E73F1000408DA401C1A
:1006C00041F1000192185B411A4301D120F0010071
:1006D00010BD2DE9F04D92469B4611B1B1FA81F261
:1006E00002E0B0FA80F220329046FFF77BFF04462A
:1006F0000F4640EA0A0041EA0B0153465A460843B6
:1007000013D0114653EA010019D0C8F140025046F7
:10071000FFF777FF05460E46504659464246FFF71B
:1007200061FF084305D0012004E020463946BDE8BA
:10073000F08D0020054346EAE0762C4337430A98C3
:100740006305E40AA0EB08000022FD0A44EA4754CE
:100750000A3002D500200146E9E701051019694178
:10076000DDE9084500196941BDE8F04DA2E7C1F394
:100770000A52C1F3130140F2FF3341F480119A424F
:1007800002DA00200146704740F233439A42A2F257
:10079000334202DC5242FFF734BFFFF723BF0000B1
:1007A00030B5041E71F1000404DB4FF000444042F8
:1007B00064EB0101141E73F1000405DB1C464FF0CD
:1007C0000043524263EB0403994208BF904230BD9C
:1007D000064C074D06E0E06840F0010394E807008E
:1007E00098471034AC42F6D3FFF7D2FCD449000846
:1007F000F449000810B50446D2B2C8B2114602F05E
:10080000AFFA05480123D0E90012204602F064FB4C
:10081000BDE8104002F0B6BA1800002010B504463A
:10082000D2B2C8B2114602F09BFA05480023D0E9C3
:100830000012204602F050FBBDE8104002F0A2BAC0
:1008400018000020FEE710B50021084602F088FAE3
:10085000002002F0E9F9BDE8104002F093BA7047B9
:1008600010B54FF4006000F0BBF84FF4805000F07A
:10087000B7F8BDE810404FF4004000F0B1B890F870
:100880003510022903D080214165012070470521E0
:1008900080F835100068016821F001010160002036
:1008A0007047000070B5044600F086F90546601CEC
:1008B00002D004480078044400F07EF9401BA042B6
:1008C000FAD370BD000000202DE9F041424C3F4DAD
:1008D00006462DED028B0120D4E901219FED3C8BD2
:1008E00095ED001A6F68D5ED020A2368B7EE000A8D
:1008F000B6F5006F19D0B6F5805F32D0B6F5004F6F
:1009000057D123B1012B04D0022B52D107E0206034
:1009100032E0C4E903216160022121602CE0E1683A
:1009200061602169A160206043E0012B02D0022BAD
:100930003FD101E0491E1AE0012A04D0022A05D065
:10094000032A36D10AE031EE000A20E03846FFF7EC
:1009500004FE53EC182BFFF778FC22E030EE800AFF
:1009600025E0012B02D0022B23D107E0491CA16016
:10097000002901DD06291CDDA0601AE0012A04D04F
:10098000022A07D0032A14D10FE031EE400A85ED88
:10099000000A0EE03846FFF7E0FD53EC182BFFF796
:1009A000F5FCFFF7EDFD686003E030EEC00A85ED71
:1009B000020A94E8070001F087F8A020FFF772FF11
:1009C00006480660BDEC028BBDE8F08128000020DF
:1009D0009A9999999999B93F9C050020143C014036
:1009E000034910B50968014201D0FFF76DFF10BD42
:1009F000143C01402DE9F84F00224FF00108032577
:100A00004FF00F0E0B6808FA02F42340A3426ED198
:100A10004E68012E05D0022E03D0112E01D0122EC9
:100A200012D186684FEA420C05FA0CF7BE43CF6834
:100A300007FA0CF7374387604668A6430C79C4F37E
:100A40000014944034434460C668570005FA07FC1C
:100A50008C6826EA0C06BC403443C4604C68022C07
:100A600001D0122C13D1D40800EB8404A346D4F88F
:100A7000209054074FEAD46A0EFA0AF629EA0609CA
:100A80000E6906FA0AF646EA0906CBF820600668FF
:100A90000C7926EA0C0604F00304BC4034430460DD
:100AA0004C68E40065D5364C266846F480462660DE
:100AB000246822F0030604F480440094314C34444A
:100AC000A446D4F808489607370F0EFA07F6B44341
:100AD0002D4EB04201D1002624E02C4EB04201D16F
:100AE00001261FE02A4EB04202D102261AE040E061
:100AF000284EB04201D1032614E0274EB04201D166
:100B000004260FE0254EB04201D105260AE0244E0E
:100B1000B04201D1062605E0224EB04201D107269F
:100B200000E00826BE402643CCF808681E4E346814
:100B30004F689C43FF0300D51C4334601A4C241DAE
:100B400026684F689E43BF0300D51E432660164E9D
:100B5000083634684F689C43FF0200D51C4334605C
:100B6000114E0C3634684F689C43BF0200D51C43BD
:100B70003460521C102AFFF445AFBDE8F88F000026
:100B800044380240003001400000024000040240AE
:100B900000080240000C0240001002400014024015
:100BA00000180240001C0240003C01400AB1816173
:100BB00070470904FBE700000148806870470000A7
:100BC0000000002070B5040025D094F83D000025F9
:100BD00020B984F83C50204600F0B8F8242084F86E
:100BE0003D002068016821F0010101602068016872
:100BF00041F4004101602068016821F40041016076
:100C000000F00EFA4D4A6168914201D84C4900E06B
:100C10004C49884201D2012070BD4B492368B0FB8A
:100C2000F1F15E6826F03F060E435E606368934212
:100C300006D94FF4967359434FF47A73B1FBF3F12D
:100C40002368491C1E6A26F03F0631431962616819
:100C5000914210D84900401EB0FBF1F2521CC2F381
:100C60000B02042A01D2042022E0B0FBF1F0401C68
:100C7000C0F30B001CE0A268F2B301EBC10303EB6D
:100C80000116431EB3FBF6F35B1C43F480431B05C4
:100C900049D092B301EBC10202EB0111401EB0FB3F
:100CA000F1F0401CC0F30B0040F4804040F40040E1
:100CB0002168CA694CF6FF739A431043C861D4E9AE
:100CC000071001432068026822F0C002114301604E
:100CD000D4E9030101432068826848F2FF339A4354
:100CE00011438160D4E9050108432168CA6822F0F4
:100CF000FF021043C86001E00EE016E020680168C2
:100D000041F0010101602564202084F83D00256345
:100D100084F83E50002070BD01EB4106431EB3FB3A
:100D2000F6F35B1CB3E70120C2E701EB4101401E73
:100D3000B0FBF1F0401CC0F30B00B7E7A086010048
:100D400080841E0000093D0040420F0010B586B0AF
:100D5000044614216846FFF76DFA1449206888425A
:100D600021D11348016841F0020101600068694621
:100D700000F0020005904FF44060009012200190B6
:100D80000120029003200390042004900948FFF7FB
:100D900031FE07481030016841F4800101600068AD
:100DA00000F48000059006B010BD0000005800401F
:100DB0003038024000040240024881680278114441
:100DC00081607047000000200B4810B5016841F4B5
:100DD00000710160016841F480610160016841F4C3
:100DE00080710160032000F06FF8002000F006F829
:100DF00000F024F8002010BD003C024070B50D4DFD
:100E000004464FF47A712878B1FBF0F00A4909687A
:100E1000B1FBF0F000F058FC48B9102C07D20022CA
:100E20002146501E00F030F800206C6070BD01209B
:100E300070BD0000000000200C0000200A4808B52A
:100E4000016841F480410160006800F48040009036
:100E50000548001F016841F080510160006800F002
:100E60008050009008BD000044380240002809DB93
:100E700000F01F02012191404009800000F1E020B4
:100E8000C0F8001170470000F0B40E4B1B680C4610
:100E9000C3F30223C3F10705042D00D90425191D4E
:100EA000072901D2002300E0DB1E012606FA05F126
:100EB000491E214099409E40761E16403143F0BCA9
:100EC00001F0D2B90CED00E0064900F00702086815
:100ED0004FF6FF03184040EA0220034A104308601F
:100EE000704700000CED00E00000FA052DE9F04726
:100EF0000E46050065D0DFF81481D8F80000F7B27F
:100F000000F00F00B04207D288F80070D8F8000057
:100F100000F00F00B04254D128683D4C810712D533
:100F2000400703D5206840F4E0502060287800078F
:100F300003D5206840F4604020602068A96820F054
:100F4000F000084320602878C0072DD03049686839
:100F50000839012812D0022813D0032811D00968BB
:100F6000890700292DDA216821F00301014321605E
:100F7000FFF722FE814641F2883A0EE009688903B4
:100F8000EFE709688901ECE7FFF716FEA0EB09011E
:100F9000514502D90320BDE8F0872068696800F058
:100FA0000C00B0EB810FEFD1D8F80010404601F0F3
:100FB0000F01B14207D90770006800F00F00B0427E
:100FC00001D00120E7E72878400705D52068E968C7
:100FD00020F4E050084320602878000706D52068F8
:100FE000296920F4604040EAC100206000F038F830
:100FF0002168084AC1F30311515CC84006490860E2
:1010000006480068FFF7FAFE0020C4E7003C0240F3
:1010100008380240042F00080C00002004000020C3
:101020000448054900680968044AC1F38221515CFB
:10103000C84070470C00002008380240142F0008F8
:101040000448054900680968044AC1F34231515C0B
:10105000C84070470C00002008380240142F0008D8
:10106000154810B5006810F00C02144813D0411058
:10107000042A0FD0082A0ED10F4C241F226823689F
:1010800002F03F025B0207D52068C0F38810A0FB86
:10109000010106E0084610BD2168C1F38811A1FBDB
:1010A00000010023FFF78EF82168C1F30141491CBC
:1010B0004900B0FBF1F010BD083802400024F400F4
:1010C0002DE9F84F04006ED02078DFF83C93C0077C
:1010D000A9F104054AD009F104000168C1F38101B6
:1010E000012908D00068C0F3810002280AD1D9F88C
:1010F0000000400206D52868800337D560680028C4
:10110000E1D033E06068B0F5803F10D0B0F5A02F9B
:10111000286810D020F480302860286820F48020CF
:1011200028606068A8B1FFF747FD06460DE0286813
:1011300040F48030F4E740F480202860F7E700BFF7
:10114000FFF73AFD801B642873D828688003F7D521
:101150000CE0FFF731FD064605E000BFFFF72CFD70
:10116000801B6428F0D828688003F7D42078DFF843
:101170009C8280074FF0000A3ED5A348001D0168FD
:1011800011F00C0F08D00068C0F3810002280BD1C9
:10119000D9F80000400207D42868800716D5E06817
:1011A000012800D112E02BE1E068B8B10120C8F8B5
:1011B0000000FFF701FD064605E000BFFFF7FCFC5D
:1011C000801B0228C0D828688007F7D528682169C5
:1011D00020F0F80040EAC10028600DE0C8F800A047
:1011E000FFF7EAFC064604E0FFF7E6FC801B022856
:1011F0001FD828688007F7D42078000722D5824EB0
:1012000083486169703671B101210160FFF7D4FC38
:10121000074604E0FFF7D0FCC01B022809D830685D
:101220008007F7D50EE0C0F800A0FFF7C5FC074621
:1012300005E082E0FFF7C0FCC01B02287DD83068C3
:101240008007F7D42078400768D5DFF8BCB10027C5
:101250000BF13C0BDBF80000C0000BD4DBF80010F6
:1012600041F08051CBF80010DBF80000012700F0BE
:1012700080500090674E3068C00510D4306840F44C
:1012800080703060FFF798FC009005E0FFF794FC59
:101290000099401A022850D83068C005F6D55A4E39
:1012A000A0686C3601280FD00528306810D020F0D7
:1012B00001003060306820F004003060A068B8B1F0
:1012C000FFF77AFC00900FE0306840F00100F4E78F
:1012D00040F004003060F7E7FFF76EFC0099411A18
:1012E00041F28830814266D830688007F4D50EE03C
:1012F000FFF762FC009007E0FFF75EFC0099411ADF
:1013000041F28830814256D830688007F4D42FB13A
:10131000DBF8001021F08051CBF80010A069C8B3B1
:101320003949091D0968C1F3810102294AD00228FF
:10133000504607D0C8F8600000E03CE0FFF73CFCF6
:1013400004463BE04746C8F86000FFF735FC064618
:1013500005E000BFFFF730FC801B02282BD828686F
:101360008001F7D4D4E907010843A16A2A4A490851
:1013700002EB0141626A41EA8211084394F82C10A1
:1013800040EA0161C9F8001001203866FFF714FC3B
:10139000044606E036E000BFFFF70EFC001B022803
:1013A00009D828688001F7D52CE000BFFFF704FCBE
:1013B000001B022802D90320BDE8F88F28688001AD
:1013C000F4D41FE00128F7D0D9F80000E26900F456
:1013D0008001914214D1226A00F03F0191420FD165
:1013E00047F6C071626A0140914209D1A26A00F4D5
:1013F0004031914204D1E16A00F07060884201D02E
:101400000120D9E70020D7E7043802400000474216
:10141000800E4742007000400000FFFF70B50400DE
:1014200005D00025A56294F8510010B106E0012016
:1014300070BD84F85050204600F030F8022084F847
:1014400051002068016821F040010160D4E90101E8
:101450000843D4E903121143084361690843218B0F
:1014600001F400710843E1690843216A0843A16A55
:10147000084321680860A069042101EA1040616AFC
:101480000843216848602068C16921F40061C16196
:101490006565012084F85100002070BDF0B587B06B
:1014A000044614216846FEF7C5FE2C492A4F2368DE
:1014B00000242A4A1039022503262948BB422AD192
:1014C000136843F480431360126802F4804205926B
:1014D0000A6842F004020A600A6802F004020592F7
:1014E0000A6842F002020A60096802AB01F00201D8
:1014F00005910821CDE90015052783E8D00069464C
:10150000FFF778FA2803CDE9000502AB694683E8C6
:10151000D00014481BE0144FBB421AD1136843F4A7
:1015200000431360126802F4004205920A6842F018
:1015300004020A600968029401F0040105914FF465
:10154000E051CDE900150621CDE903616946FFF7B9
:1015500051FA07B0F0BD00000038004040380240AA
:101560000008024000040240003C00402DE9F84F12
:10157000044690F8500000271D461646894601286B
:101580000DD04FF0010B84F850B0FFF715FB8046EB
:1015900094F85100BA46012804D002278EE00220B8
:1015A000BDE8F88FB9F1000F7DD0002E7BD003206D
:1015B00084F85100C4F854A0C4F83090A686E6869A
:1015C000C4F838A0A4F83CA0A4F83EA0C4F844A0F5
:1015D000C4F840A0A068B0F5004F04D120680168AD
:1015E00041F48041016020680168490603D4016824
:1015F00041F040010160E068B0F5006F606803D021
:1016000030B3012E24D040E008B1012E1CD1206B54
:1016100021680088C86006E020688168890709D5CC
:10162000216B0988C160206B801C2063E08E401E06
:10163000E08609E0FFF7C0FAA0EB0800A84202D359
:10164000681C01D031E07DB3E08E0028E4D11FE0BA
:10165000206B21680078087306E02068816889079C
:1016600009D5216B09780173206B401C2063E08E43
:10167000401EE08609E0FFF79FFAA0EB0800A842B1
:1016800002D3681C01D010E075B1E08E0028E4D1CF
:1016900042462946204600F0D1FB08B12020606573
:1016A000A06820B107E008E0FFE7032706E0206814
:1016B000C16880680090606D00B1012784F851B066
:1016C00084F850A038466BE710B5401EB0F1807F1B
:1016D00001D3012010BD4FF0E02460610F2160179D
:1016E00000F0C2FD0020A06107202061002010BD95
:1016F0007047000070B5026804461068D1685369ED
:1017000010F00F0F52D003F0010501F490762E4334
:101710005FD0C20705D0CA0503D5E26B42F00102D3
:10172000E263420705D5DA0703D0E26B42F002021A
:10173000E263820705D5DA0703D0E26B42F00402C8
:10174000E263020707D501F020022A4303D0E26BCF
:1017500042F00802E263E26B002A33D0800604D52F
:10176000880602D5204600F051FC20684069E16BF4
:10177000C0F38010090700D428B3204600F038FCDD
:101780002068416949061AD5416921F0400141614B
:10179000606BA0B11B490165606BFFF770F8002812
:1017A00010D0606B016DBDE870400847830610D50E
:1017B0008B060ED52046BDE8704000F027BC2046C1
:1017C000FFF796FF70BD2046FFF792FF0020E06311
:1017D00070BD030606D50B0604D52046BDE8704053
:1017E00000F0F4BC4006F3D54806F1D5D168204698
:1017F00021F04001D160202184F8391000F075F803
:1018000070BD0000E11F000870B5040004D094F81A
:101810003900002510B106E0012070BD84F8385071
:10182000204600F023F8242084F839002068C1689D
:1018300021F40051C160204600F034FC20680169A9
:1018400021F4904101612068416921F02A01416140
:101850002068C16841F40051C160E563202084F82C
:10186000390084F83A00002070BD000010B586B041
:10187000044614216846FEF7DDFC184920688842BA
:1018800029D117480021026842F010020260006866
:1018900000F01000059012481438026842F001026E
:1018A0000260006800F0010005904FF4C0600090F5
:1018B0000220CDE90101032003900720049069462E
:1018C0000848FFF797F8002202212520FFF7DCFAED
:1018D0002520FFF7CBFA06B010BD00000010014034
:1018E000443802400000024070477047FEE70000A5
:1018F0002DE9F04786B014216846FEF79BFC494865
:101900000025016841F010010160016801F010013B
:101910000591016841F080010160016801F08001DA
:101920000591016841F004010160016801F00401C2
:101930000591016841F001010160016801F00101B8
:101940000591016841F002010160016801F00201A6
:101950000591016841F0080101600068324F00F014
:1019600008004FF2FF040590012221463846FFF798
:101970001DF9DFF8B880002210214046FFF716F964
:10198000DFF8AC904FF44076012231464846FFF72D
:101990000DF9DFF8A0A0012207215046FFF706F954
:1019A00000940124694638460194CDE90245FFF7C9
:1019B00021F81020CDE9000469464046CDE90245F2
:1019C000FFF718F84FF4184000901B48CDE90104C8
:1019D00069465046FFF70EF846F23000CDE90005A3
:1019E000694602945046FFF705F8CDE90064694660
:1019F0004846CDE90245FEF7FDFF0720CDE900048A
:101A000069465046CDE90245FEF7F4FF0022062163
:101A10002820FFF739FA2820FFF728FA06B0BDE89A
:101A2000F087000030380240001002400000024001
:101A300000080240000C0240000021100F4810B5C1
:101A40000D4901604FF4827141604FF400418160A3
:101A50000021C1604FF400720161C0E90512C1614B
:101A60000162416281620A21C162FFF7D7FC00284E
:101A700001D072B6FEE710BD00380040AC00002077
:101A80000E4810B50C4901604FF48271416000218D
:101A90008160C1604FF400720161C0E90512C1614B
:101AA0000162416281620A21C162FFF7B7FC00282E
:101AB00001D072B6FEE710BD003C004004010020DA
:101AC000FEE7FEE7704700002DE9F04116460D469F
:101AD0000746FEF7B8FE002F57D09B4C012F62D06F
:101AE000022F7CD12068FEF738FD41EC100B97A146
:101AF00053EC102B974800F0A3FB6068FEF72DFD18
:101B000041EC100B934853EC102B93A10A3000F0DA
:101B100097FBA068FEF721FD41EC100B8D4853ECBC
:101B2000102B8AA1143000F08BFB681E022824D8E9
:101B30000021084601F014F9894E012389A0D6E955
:101B4000001201F0C9F901F01DF90021292001F06E
:101B500007F9D6E90012012383A001F0BDF901F0D5
:101B600011F90021522001F0FBF8D6E900120123FF
:101B70007EA001F0B1F901F005F9072D2FD2DFE8C1
:101B800005F0E08D99AABDC0C3000022114678A0DF
:101B9000FEF730FE0A22002179A0FEF72BFE142268
:101BA000002179A0C9E07CA07FA1C4E9030183A141
:101BB000616184A1A16185A1E16186A1216287A102
:101BC000616288A1A16289A1E162002D07D1002292
:101BD0001146FEF70FFE0A220021206900E079E09D
:101BE000FEF708FE072E75D2DFE806F0040A182378
:101BF000313C4A00152201216069FEF7FBFD04E03B
:101C0000152201216069FEF709FE24220121A06945
:101C1000FEF7F0FD34220121E0698EE0152201215A
:101C20006069FEF7E7FD24220121A069FEF7F6FDB9
:101C3000F0E7152201216069FEF7DCFD2422012175
:101C4000A069FEF7D7FD34220121E06952E0152298
:101C50000121206AFEF7E2FD24220121606AFEF7DD
:101C6000C9FD09E015220121206AFEF7C3FD2422E7
:101C70000121606AFEF7D2FD34220121A06A5CE0F6
:101C800015220121206AFEF7B5FD24220121606A98
:101C9000FEF7B0FD34220121A06A2BE028220121A9
:101CA0002C48FEF7BBFD2B4828222A210A30FEF7DC
:101CB000A1FD0AE0282201212648FEF79BFD2548C8
:101CC00028222A210A30FEF7A9FD22482822532182
:101CD000143032E035E0282201211E48FEF78AFD4B
:101CE0001C4828222A210A30FEF784FD19482822A0
:101CF00053211430BDE8F041FEF790BD3DA040A156
:101D000004E03CA042A101E03AA045A1C4E90301DE
:101D10001BA1616146A10022A1611146FEF76AFD87
:101D20000C2200212069FEF765FD1E22002160695A
:101D3000FEF760FD3222A0690021BDE8F041FEF708
:101D400059BDBDE8F081000028000020252E316635
:101D500000000000B0050020252E326600000000C3
:101D60002000002050000000490000004400000056
:101D7000496E697420436F6D706C6574652E000048
:101D8000546170204F4B0000746F2053656C656385
:101D900074204D6F64650000506C6561736520535D
:101DA000656C6563740000005573696E672055703B
:101DB00020616E6420446F776E00000053657420CC
:101DC00050000000536574204900000053657420E2
:101DD000440000004D4F4445203100004D4F444524
:101DE000203200004D4F4445203300004D4F444504
:101DF00020340000596F752043686F6F73650000D1
:101E0000202020202020204D4F444520312021003B
:101E1000202020202020204D4F444520322021002A
:101E2000202020202020204D4F4445203320210019
:101E3000546F2052657475726E00000038B5044608
:101E40001248134B0068B0FBF3F04FF47A73584319
:101E500000906068B0F5827F0DD10B4600920022A1
:101E60008021204600F016F870B1606D40F020002F
:101E70006065032038BD009830B1401E0090206896
:101E80008068C0430006F6D5002038BD0C00002055
:101E900000366E012DE9F0411D4617460E460446F8
:101EA000DDF8188008E0681C06D0FEF785FEA0EB80
:101EB0000800A8420BD255B12068806836EA0000BD
:101EC00030D00020B842EED10020BDE8F08120687B
:101ED000416821F0E00141606068B0F5827F0BD17C
:101EE000A068B0F5004F02D0B0F5806F04D1206833
:101EF000016821F040010160A06AB0F5005F09D1DE
:101F00002068016821F4005101602068016841F4F3
:101F100000510160012084F85100002084F8500035
:101F20000320D2E70120CDE77047FEF745BF000050
:101F300030B593B030216846FEF77CF914210CA827
:101F4000FEF778F91D480025016841F080510160D5
:101F5000006800F0805011901948016841F48041F8
:101F600001600068022400F480401190012000907C
:101F7000000401908001CDE9064008AA0420A821B0
:101F800082E813000B906846FFF79AF808B172B622
:101F9000FEE70CA90F2081E831004FF4A0500F900C
:101FA0004FF48050109005210CA8FEF79FFF0028E9
:101FB00001D072B6FEE713B030BD000040380240D9
:101FC000007000400548016841F470010160034958
:101FD0004FF00060803908607047000088ED00E035
:101FE00010B5806B0021C185C184FFF781FB10BD56
:101FF0000168CA6822F49072CA6001684A6922F0D6
:1020000001024A61202180F83A10704710B590F81B
:102010003A10222901D0022010BD8168B1F5805FFD
:1020200011D00169002901681FD0496801F07F03C0
:10203000816A4A1C82620B70C18D491E0904090C19
:10204000C18518D02BE00269816A002A02685268B3
:1020500005D0D2B20A80816A491C8162ECE7C2F3E2
:1020600008020A80816A891CF7E74A68816A4B1C6A
:1020700083620A70E0E70168CA6822F02002CA6041
:102080000168CA6822F48072CA6001684A6922F055
:1020900001024A61202180F83A10FFF725FC002058
:1020A00010BD00002DE9F041044600680169E268B6
:1020B00021F44051114301612169A068E26908439C
:1020C0006169114308432168CA6849F20C639A4365
:1020D0000243CA6020684169A26921F4407111433A
:1020E0004161E069192764253226B0F5004F354A71
:1020F000354920684FF0000806D0884201D0904250
:1021000036D1FEF79DFF35E0884201D0904202D1E2
:10211000FEF796FF01E0FEF783FF61684A18A0FB17
:10212000070148EB0803FEF74DF80146B0FBF5F058
:102130000201B1FBF5F06FF01803584301EB80008A
:1021400006EBC000B0FBF5F000F0F80002EB400237
:10215000B1FBF5F0584301EB800006EBC000B0FB8B
:10216000F5F000F00700216810448860BDE8F081B8
:10217000FEF756FF61688B0F8A00A0FB0701FEF790
:1021800021F80146B0FBF5F06FF01802504301EB67
:10219000800006EB0010B0FBF5F000F0F002B1FBA0
:1021A000F5F002EB0012B1FBF5F06FF018035843A5
:1021B00001EB800006EB0010B0FBF5F000F00F0023
:1021C000D1E70000001401400010014090F83910E0
:1021D000212901D0022070478168B1F5805F016A32
:1021E0000BD04A1C0262026809785160C18C491EFA
:1021F0000904090CC1840ED017E009880268C1F3F4
:102200000801516001690029016A02D0491C01627C
:10221000ECE7891CFBE70168CA6822F08002CA600B
:102220000068C16841F04001C160002070470000B3
:102230000148FFF75FBA00005C010020FEE70000E4
:102240000FB4084B10B504A902AA039800F0EEF8E9
:10225000044602A9002000F06CFC204610BC5DF88A
:1022600014FB0000332B00080907090E002804DBCB
:1022700000F1E02080F80014704700F00F0000F13A
:10228000E02080F8141D704702E008C8121F08C142
:10229000002AFAD170477047002001E001C1121FE7
:1022A000002AFBD1704700002DE9FF5F82B00021BA
:1022B000DDE90430020DDDF840B0034318D044F6E8
:1022C0001050A2F2FF3242431514119801281FD07A
:1022D000A5EB0B00401C5FEA000A4FF000064E4FD2
:1022E000DFF83891B046504615D5CAF1000413E026
:1022F000119801244AA3012801D16FEA0B01029829
:10230000119AC0E90031C0E9024206B0BDE8F09F71
:10231000CBF10000DFE704460021404A491842EBB8
:102320000450CDE9001012E0E00707D032463B46EA
:1023300040464946FEF730F88046894632463B46DD
:1023400010461946FEF728F806460F466410002C82
:10235000EAD1DDE90401DDE90023BAF1000F06DA74
:10236000FEF71AF842464B46FEF716F805E0FEF770
:1023700085F842464B46FEF781F804460E46002299
:10238000284BFEF70DFA03D84FF0FF30014607E067
:102390000022254B20463146FDF757FFFEF7E7F9AF
:1023A000102409E0002C0ADB0A220023FDF70AFFB3
:1023B000039B30321A55641E50EA0102F2D1641CAC
:1023C000039AC4F111031444119A012A03D0012283
:1023D00008430DD10AE0084304D000204FF0110B50
:1023E000119072E7A3EB0B056D1E0DE05B4504DD5C
:1023F0004FF0000205F1010504E003DA4FF000029E
:10240000A5F10105002AECD002981199C0E902312A
:10241000C0E9004579E70000000014400000F03FEB
:10242000300000000000F0430000E03F2DE9FF4FC6
:1024300095B09A46884606460025EEE1252877D1D4
:1024400000242746F94A0121039400E0044316F8CA
:10245000013F203B01FA03F01042F7D130782A28DF
:1024600011D06FF02F033078A0F13002092A16D86E
:10247000039A44F0020402EB820203EB420210448E
:10248000761C0390EFE758F8042B0392002A03DA36
:10249000504244F40054039044F00204761C307817
:1024A0002E2816D116F8010F44F004042A280DD066
:1024B0006FF02F023078A0F13003092B09D807EB19
:1024C000870302EB4303C718761CF3E758F8047B35
:1024D000761C30786C280FD006DC4C2817D0682882
:1024E0000DD06A2814D104E0742810D07A280FD1B6
:1024F0000DE044F400140AE044F4801401E044F4D4
:1025000040147278824202D104F58014761C761C45
:10251000307866280BD013DC582877D009DC0028E7
:1025200075D04528F6D04628F4D047281AD193E133
:1025300018E0632835D0642879D0652812D18BE162
:10254000702873D008DC6728F1D069286FD06E2816
:102550000DD06F2806D1ACE073282CD0752874D02C
:10256000782853D05246179990476D1C54E1C4F314
:102570000250022809D003280DD0D8F800100428F2
:102580000DD00D6008F1040846E1D8F80010EA17F4
:10259000C1E90052F6E7D8F800100D80F2E70D709F
:1025A000F0E718F8041B8DF8001000208DF80100EA
:1025B000EB46012003E058F804BB4FF0FF30610701
:1025C0004FF0000102D40DE009F101018946B94242
:1025D0000FDA8145F8DB1BF809100029F4D108E077
:1025E00009F1010189468142FADB1BF80910002933
:1025F000F6D103985346A0EB090721463846179AAF
:1026000000F080FA284400EB090507E044E008E107
:102610000DE01BF8010B524617999047B9F10109DB
:10262000F7D2534621463846179AF2E039E00A219C
:10263000C4F302524FF0000B0091022A06D058F862
:10264000040BC117032A09D00AE023E008F10700B0
:1026500020F00702F2E80201904605E000B2C1173F
:10266000042A01D140B2C117002906DA0A46002126
:10267000404261EB02012D2202E0220504D52B220B
:102680008DF80420012203E0E20701D02022F7E7C1
:10269000914657E00A2100E010214FF0000B009115
:1026A0000BE010214FF0000B44F0040408270091C8
:1026B00003E008204FF0000B0090C4F30252022AFE
:1026C00005D058F8040B0021032A08D008E008F1CF
:1026D000070020F00702F2E80201904603E080B212
:1026E000042A00D1C0B24FF0000922072AD532785F
:1026F000702A07D0DDF800C08CF0100C5CEA0B0CDF
:1027000005D00EE040228DF80420012208E050EAB6
:10271000010306D030238DF804308DF80520022205
:102720009146009B83F0080353EA0B030AD150EA59
:10273000010201D1620705D530228DF804204FF047
:1027400001097F1E3278582A04D039A20C920CAAB3
:1027500002920BE03BA2F9E75B46009AFDF732FDDF
:102760000C9B9B5C029A521E0292137050EA01026B
:10277000F2D1029804A9081A00F1200B600702D5D3
:1027800024F4803400E001275F4502DDA7EB0B0055
:1027900000E0002000EB0B01009003984944401A30
:1027A0000390E00306D453462146179A039800F09D
:1027B000A9F90544002706E001A85246C05D179913
:1027C00090476D1C7F1C4F45F6DBE0030CD553464C
:1027D0002146179A039800F095F9054404E030204B
:1027E0005246179990476D1C0099481E0090002989
:1027F000F5DC08E00298029952460078491C0291E3
:10280000179990476D1CBBF10001ABF1010BF1DC96
:102810005BE100F065F90544761C307800287FF410
:102820000DAE19B02846BDE8F08F00000928010060
:102830003031323334353637383961626364656636
:1028400000000000303132333435363738394142F8
:102850004344454600000000600700D4062708F105
:10286000070020F00700F0E80223804603F0004C48
:102870005FEA0C0001D097A009E0200501D596A0E1
:1028800005E0E00701D095A001E0AFF24C00139005
:10289000307823F0004365280CD006DC452809D0A9
:1028A00046281DD047287FD13BE0662818D06728EE
:1028B0007AD136E00021112F01DB112000E0781CD5
:1028C000CDE9000104A90CA8FFF7EEFCDDE90D013C
:1028D0000C9A4FF0000B07F10109109200914EE0A5
:1028E0004FF000400097CDE9011004A90CA8FFF7B4
:1028F000DBFCDDE90D020C9B0F994FF0000B9146BC
:102900001093009211B9791C00EB0109B7EB090093
:1029100003D4C0F1FF3B07F10109A9EB07000190C7
:1029200042E0012F00DA01270021112F01DD1120E3
:1029300000E03846CDE9000104A90CA8FFF7B4FC7B
:10294000DDE90D010C9A00914FF0000BB946109291
:1029500021070FD4009A4A4503DA914601E0A9F114
:102960000109B9F1010F05DD109AA9F10101515CCE
:102970003029F4D0B84202DA10F1040F03DA012151
:10298000CDE9011010E0002803DC8344A9EB00012D
:1029900002E0411C494500DD8946A0EB0B00401CCC
:1029A00001904FF000400290200705D4019848455F
:1029B00002DB4FF0FF30019000208DF84B000298B1
:1029C0000DF14B07B0F1004F25D002200C902B20C9
:1029D0000D90029800280CDA404202902D200D90B4
:1029E00007E00A210298FDF7E7FD3031029007F871
:1029F000011D0C99481E0C900029F2DC0298002859
:102A0000EFD1791E0D980870307800F0200040F06A
:102A1000450007F8020D11A8C01BC01D02901398B5
:102A2000007800B1012000EB0901019801EBE07191
:102A3000029801440398401A401E0390E00306D414
:102A400053462146179A039800F05CF80544139802
:102A5000007818B15246179990476D1CE00323D5B2
:102A600053462146179A039800F04CF805441BE0A2
:102A7000BBF1000F07DB0098584504DD109817994B
:102A800010F80B0001E0179930205246904701984A
:102A90000BF1010B401E05F10105019004D12E2020
:102AA0005246179990476D1CB9F10001A9F101092F
:102AB000DEDC05E017F8010B5246179990476D1CB4
:102AC0000299481E02900029F4DC53462146179AC9
:102AD00003989EE62D0000002B000000200000005F
:102AE0002DE9F041044600251E461746880404D40B
:102AF00005E039462020B0476D1C641EF9D52846F4
:102B0000BDE8F0812DE9F041044600251E469046BF
:102B1000C80301D5302700E02027880404D505E04C
:102B200041463846B0476D1C641EF9D52846BDE8BD
:102B3000F0810A68531C0B6010707047FEF744F96F
:102B4000FFF7F6F9FEF7D4FE1C481B49002401608C
:102B50004FF4E131C0E901140C21C460C0E9044123
:102B60008461C461FEF750FE08B172B6FEE71548F5
:102B7000134901601449C0E901144FF48041C0E9D0
:102B8000034144618461C4610462FEF71BF808B12B
:102B900072B6FEE7FEF752FFFEF772FF00F054F840
:102BA0000022114609A0FDF725FE0A2200210CA0F3
:102BB000FDF720FEFEE70000001001405C01002050
:102BC0000058004058000020A08601005072657334
:102BD00073204F4B20746F206368616E67652E0011
:102BE0006D6F64652E00000070B5802813D24029F7
:102BF00011D20B4B012401F007051E79AC40094BA3
:102C0000C90800EBC1100EB132B101E0012A03D0B6
:102C1000195CA143195470BD195C2143FAE7000007
:102C2000100000209C01002010B5064A00214FF43E
:102C3000806328B1FF245454491C9942F9D310BD34
:102C40000024F8E79C01002010B500F063F8642030
:102C5000FDF728FE002000F089F8202000F0FEF8A3
:102C6000002000F0FBF8B02000F0F8F8C82000F0D9
:102C7000F5F8002000F0F2F8102000F0EFF8402006
:102C800000F0ECF8FF2000F061F8A12000F0E6F879
:102C9000A72000F0E3F8A82000F0E0F83F2000F0C3
:102CA000DDF8A42000F0DAF8D32000F0D7F80020F7
:102CB00000F0D4F8D52000F0D1F8F02000F0CEF8E4
:102CC000D92000F0CBF8222000F0C8F8DA2000F07C
:102CD000C5F8122000F0C2F8DB2000F0BFF8202079
:102CE00000F0BCF88D2000F0B9F8142000F0B6F820
:102CF000012000F03BF80020FFF796FF00F042F8BB
:102D000003480021018041800121417110BD000074
:102D10001000002010B50C4C012211462046FDF792
:102D200045FF002204212046FDF740FF0A20FDF761
:102D3000B9FD012204212046FDF738FFBDE810400F
:102D40000A20FDF7AFBD0000000C024010B504469C
:102D5000812000F083F82046BDE8104000F07EB8E6
:102D6000014A10805180704710000020044910B1C2
:102D7000AF20012201E0AE2000228A7100F06EB87F
:102D80001000002070B50C4D002400BF04F1B0000D
:102D9000C0B200F063F8002000F060F8102000F0EE
:102DA0005DF805EBC410802100F076F8641CE4B2F5
:102DB000082CEBD370BD00009C0100202DE9FF4FD3
:102DC00093460098A0F1200ABAF15F0F0CD2224876
:102DD000CEB202883244802A06D881464088C1F3A8
:102DE00007273844402803D9002004B0BDE8F08FFD
:102DF000002525E01AFB07513BF8118000241CE058
:102E000008FA04F0000409D599F8021099F80000B6
:102E100029442044C9B2C0B2039A0BE00398C0B160
:102E20005FF0000299F8021099F80000294420444C
:102E3000C9B2C0B2FFF7D8FE641CA642E0D86D1C30
:102E4000AF42D7D8B9F800103144A9F80010009863
:102E5000CBE70122E6E700001000002031B50C4C62
:102E6000002201212046FDF7A1FE0022022120467A
:102E7000FDF79CFE4FF0FF33012269460548FEF73F
:102E800075FB012211462046FDF790FE38BD00007B
:102E9000000C0240AC00002070B50D4E0D460446FB
:102EA000002201213046FDF781FE01220221304639
:102EB000FDF77CFEAAB24FF0FF3321460548FEF72E
:102EC00055FB3046BDE8704001221146FDF76EBE4D
:102ED000000C0240AC000020F0B51D460E4617461F
:102EE00004460AE02B463A463146FFF767FF217851
:102EF000884201D0C8B2F0BD641C20780028F1D10E
:102F0000C0B2F0BD00000000000000000102030498
:102F10000607080900000000010203040000000089
:102F200000000000000000000000000000000000A1
:102F30000010001000100010001000100000001021
:102F40000000000000280028002800000000000009
:102F5000000000000000000000240024007C002489
:102F60000048007C00480048000000000038005481
:102F700000500038001400540054003800100000C5
:102F800000200054005800300028005400140008AD
:102F90000000000000100028002800100034004845
:102FA0000048003400000000001000100010000075
:102FB00000000000000000000000000000080010F9
:102FC0000020002000200020002000200010000829
:102FD0000020001000080008000800080008000891
:102FE0000010002000100038001000280000000031
:102FF00000000000000000000000000000100010B1
:10300000007C001000100000000000000000000024
:103010000000000000000000000000100010001080
:103020000000000000000000000000380000000068
:103030000000000000000000000000000000000090
:103040000000001000000000000800080010001040
:103050000010001000200020000000000038004494
:1030600000440054004400440044003800000000C4
:103070000010003000500010001000100010001070
:103080000000000000380044004400040008001064
:103090000020007C000000000038004400040018FC
:1030A000000400040044003800000000000800187C
:1030B000002800280048007C0008000800000000EC
:1030C000007C004000400078000400040044003808
:1030D0000000000000380044004000780044004434
:1030E0000044003800000000007C000400080010CC
:1030F00000100020002000200000000000380044E4
:10310000004400380044004400440038000000003F
:103110000038004400440044003C000400440038EF
:10312000000000000000000000100000000000008F
:10313000000000100000000000000000000000106F
:10314000000000000000001000100010000000004F
:10315000000C003000400030000C000000000000B7
:10316000000000000000007C0000007C0000000067
:1031700000000000000000000060001800040018BB
:103180000060000000000000003800440004000857
:103190000010001000000010000000000038004483
:1031A000004C0054005C004000400038000000006B
:1031B00000100028002800280028007C004400445B
:1031C00000000000007800440044007800440044FF
:1031D0000044007800000000003800440040004037
:1031E000004000400044003800000000007000482B
:1031F0000044004400440044004800700000000007
:10320000007C00400040007C004000400040007C0A
:1032100000000000007C00400040007800400040BA
:103220000040004000000000003800440040004022
:10323000005C0044004400380000000000440044EA
:103240000044007C004400440044004400000000AE
:10325000003800100010001000100010001000389E
:103260000000000000040004000400040004000446
:103270000044003800000000004400480050006096
:10328000005000480048004400000000004000409A
:1032900000400040004000400040007C0000000072
:1032A0000044006C006C005400440044004400449E
:1032B0000000000000440064006400540054004C0E
:1032C000004C00440000000000380044004400446A
:1032D000004400440044003800000000007800442E
:1032E000004400440078004000400040000000001E
:1032F00000380044004400440044004400540038B6
:1033000000040000007800440044004400780048B5
:103310000048004400000000003800440040003035
:10332000000800040044003800000000007C001089
:10333000001000100010001000100010000000002D
:103340000044004400440044004400440044003869
:103350000000000000440044004400280028002829
:10336000001000100000000000440044005400540D
:103370000054006C002800280000000000440028D1
:103380000028001000100028002800440000000061
:103390000044004400280028001000100010001015
:1033A00000000000007C0004000800100010002055
:1033B0000040007C00000000001800100010001009
:1033C0000010001000100010001000180020002055
:1033D000001000100010001000080008000000009D
:1033E000003000100010001000100010001000103D
:1033F00000100030001000280028004400000000E9
:1034000000000000000000000000000000000000BC
:103410000000000000000000000000FE002000107E
:10342000000000000000000000000000000000009C
:103430000000000000380044003C0044004C003410
:1034400000000000004000400058006400440044B8
:103450000064005800000000000000000038004434
:103460000040004000440038000000000004000458
:103470000034004C00440044004C003400000000C4
:103480000000000000380044007C00400044003888
:1034900000000000000C0010007C00100010001064
:1034A0000010001000000000000000000034004C7C
:1034B00000440044004C0034000400780040004008
:1034C0000058006400440044004400440000000030
:1034D000001000000070001000100010001000101C
:1034E000000000000010000000700010001000102C
:1034F00000100010001000E00040004000480050A4
:1035000000600050004800440000000000700010FF
:10351000001000100010001000100010000000004B
:10352000000000000078005400540054005400547F
:103530000000000000000000005800640044004447
:103540000044004400000000000000000038004477
:103550000044004400440038000000000000000067
:1035600000580064004400440064005800400040DB
:10357000000000000034004C00440044004C0034C3
:1035800000040004000000000058006400400040F7
:10359000004000400000000000000000003800442F
:1035A0000030000800440038000000000020002027
:1035B00000780020002000200020001800000000FB
:1035C000000000000044004400440044004C00346B
:1035D0000000000000000000004400440028002813
:1035E00000280010000000000000000000540054FB
:1035F0000054006C002800280000000000000000BB
:1036000000440028001000100028004400000000C2
:1036100000000000004400440028002800100010B2
:103620000010006000000000007C00080010002076
:103630000040007C00000000001800100010001086
:1036400000200020001000100010001800100010D2
:1036500000100010001000100010001000100010EA
:1036600000300010001000100008000800100010CA
:10367000001000300000000000000074004C00004A
:10368000000000000000000000000000000000003A
:10369000000000000000000000000000000000002A
:1036A000000000000000000000000000000000001A
:1036B000000000000000000000000000E003E00344
:1036C000E003E003E003E003E003E003C003C00322
:1036D000C001C001C001C001C00100000000000025
:1036E000E003E003E0030000000000000000000031
:1036F0003C1E3C1E3C1E3C1E3C1E3C1E3C1E000054
:1037000000000000000000000000000000000000B9
:1037100000000000000000000000000000000000A9
:1037200000000000CE01CE03DE039E039C039C0735
:10373000FF3FFF7F3807380F780F780F780EFFFFB5
:10374000FFFFF01EF01CE01CE03CE03DE039000013
:103750000000000000000000FC03FE0FEE1FE01E52
:10376000E01EE01EE01EE01FE00FE007F003FC019A
:10377000FE01FE01FE01FE01FE01FE01FE3DFC3FD9
:10378000F00FE001E001000000000000033E07F739
:103790008FE78EE79EE3BCE3B8E7F8E7F0F7E03F9A
:1037A000C001FF03FF07F307F30FF31EF33CF338E9
:1037B000F3787FF03FE00000000000000000000010
:1037C000E007F80F780F781F781F781F780FF00F39
:1037D000E00F801FC37FC3FBE7F3F7F1F7F0FFF0C3
:1037E0007FF03EF87F7CFF3FEF1F000000000000ED
:1037F00000000000E003E003E003E003E003C00397
:10380000C0010000000000000000000000000000F7
:1038100000000000000000000000000000000000A8
:1038200000000000000000003F007C00F001E0010B
:10383000C003C00780078007800F000F000F000F34
:10384000000F000F000F800F80078007C007C00324
:10385000E001F0017C003F000F000000007E001F2F
:10386000C007C003E001F001F000F000F8007800AC
:1038700078007800780078007800F800F000F00018
:10388000F001E001C003C007001F007E00780000C7
:10389000E003C003C001CE39FF3F7F3F2003700328
:1038A000F807780F3C1F38060000000000000000F9
:1038B0000000000000000000000000000000000008
:1038C00000000000000000000000000000000000F8
:1038D000C001C001C001C001C001C001C001FFFFA3
:1038E000FFFFC001C001C001C001C001C001000054
:1038F00000000000000000000000000000000000C8
:1039000000000000000000000000000000000000B7
:1039100000000000000000000000E003E003E003FE
:10392000E003E001E001E001C001800300000000CD
:103930000000000000000000000000000000000087
:103940000000FE3FFE3F00000000000000000000FD
:103950000000000000000000000000000000000067
:103960000000000000000000000000000000000057
:103970000000000000000000000000000000000047
:103980000000E003E003E003E003000000000000AB
:10399000000000000F000F001E001E003C003C0055
:1039A00078007800F000F000E001E001C003C003FF
:1039B00080078007000F000F001E001E003C003C27
:1039C0000078007800F00000F007F80F7C1F3E3E02
:1039D0001E3C1F7C1F7C0F780F780F780F780F78B4
:1039E0000F780F781F7C1F7C1E3C3E3E7C1FF80F1B
:1039F000F00700000000000000000000F000F007E9
:103A0000F03FF03FF001F001F001F001F001F001B2
:103A1000F001F001F001F001F001F001F001F0011E
:103A2000F001FF3FFF3F0000000000000000000029
:103A3000E00FF83F7C3C3C003E003E003E003C0076
:103A40003C007C00F800F001E003C0078007000F95
:103A5000001E003E003CFE3FFE3F00000000000054
:103A600000000000F00FF81F7C1C3E003E003E00EE
:103A70003C003C00F800F00FF80F7C003E001E00F8
:103A80001E001E001E003E007C1CF81FE01F0000F0
:103A900000000000000000007800F800F800F801C5
:103AA000F803F807F807780F781E781E783C7878C6
:103AB0007878FFFFFFFF78007800780078007800C2
:103AC000780000000000000000000000FC1FFC1F48
:103AD000FC1F001E001E001E001E001EE01FF81F1F
:103AE000FC007C003E003E001E003E003E003C000C
:103AF0007C1CF81FE01F0000000000000000000018
:103B0000FC01FE078E0F001F001E003E003C003C23
:103B1000F83DFC3F3E7F1F7E0F3C0F3C0F3C0F3CAF
:103B20000F3E1F1E3E1FFC0FF003000000000000B0
:103B300000000000FF3FFF3FFF3F0F001E001E0080
:103B40003C0038007800F000F000E001E001C00324
:103B5000C0038007800F800F000F001F001F0000B0
:103B60000000000000000000F807FC0F3E1F1E1EB2
:103B70001E3E1E3E1E1E3C1FF80FF007F80FFC1ED7
:103B80003E3E1F3C1F7C0F7C0F7C1F3C3E3FFC1FBA
:103B9000F00700000000000000000000F007F80F30
:103BA0007C1E3E3C1E3C1F7C1F7C1F7C1F7C1F3CE0
:103BB0003F3EFF1FEF071F001E001E003E003C009F
:103BC000F838F03FE01F0000000000000000000097
:103BD000000000000000000000000000E003E0031F
:103BE000E003E0030000000000000000000000000F
:103BF0000000E003E003E003E00300000000000039
:103C000000000000000000000000000000000000B4
:103C1000E003E003E003E003000000000000000018
:103C2000000000000000E003E003E003E003E00127
:103C3000E001E001C003800300000000000000007C
:103C40000000000003000F003F00FC00F003C00F65
:103C5000003F00FE003FC00FF003FC003F000F00DC
:103C60000300000000000000000000000000000051
:103C70000000000000000000000000000000000044
:103C8000FFFFFFFF000000000000FFFFFFFF00003C
:103C90000000000000000000000000000000000024
:103CA00000000000000000000000000000E000F83C
:103CB000007E801FE007F8017E001F007E00F801F3
:103CC000E007801F007E00F800E000000000000018
:103CD00000000000F01FFC3F3E381F381F381E0058
:103CE0001E003C007800F000E001C003C003C007E4
:103CF000C007000000000000C007C007C0070000A8
:103D00000000000000000000F803FE0F1E1F0F3E21
:103D10007F3CFF78EF79C773C7F38FF38FF38FF38F
:103D20009FF39FF3FF73FF7BF779003C1C1FFC0F91
:103D3000F803000000000000000000000000000088
:103D40000000E003E003F007F007F007780F780FBA
:103D50007C0E3C1E3C1E3E3CFE3FFF3F1F780F7812
:103D60000FF007F007F00000000000000000000066
:103D7000000000000000F83FFC3F3E3C1E3C1E3CA3
:103D80001E3C3E3C7C3CF03FF83F7E3C1F3C1F3CD1
:103D90000F3C0F3C1F3CFE3FF83F000000000000BE
:103DA00000000000000000000000FF01FF07871F67
:103DB000003E003C007C00780078007800780078B5
:103DC000007C007C003E003F831FFF07FF010000D6
:103DD0000000000000000000000000000000F07F74
:103DE000FC7F7E781F781F780F780F780F780F7818
:103DF0000F780F780F780F781F781E787E78F87F0D
:103E0000E07F000000000000000000000000000053
:103E10000000FF3FFF3F003E003E003E003E003EF0
:103E2000003EFE3FFE3F003E003E003E003E003EA4
:103E3000003EFF3FFF3F00000000000000000000C8
:103E4000000000000000FF1FFF1F001E001E001EDC
:103E5000001E001E001EFF1FFF1F001E001E001E72
:103E6000001E001E001E001E001E000000000000BC
:103E700000000000000000000000FE03FF0F871F8D
:103E8000003E007C007C007800F800F87FF87FF8A6
:103E90000F780F7C0F7C0F3E8F1FFF0FFE0300007B
:103EA00000000000000000000000000000001F7C77
:103EB0001F7C1F7C1F7C1F7C1F7C1F7C1F7CFF7F47
:103EC000FF7F1F7C1F7C1F7C1F7C1F7C1F7C1F7C37
:103ED0001F7C000000000000000000000000000047
:103EE0000000FF3FFF3FE003E003E003E003E003E7
:103EF000E003E003E003E003E003E003E003E003AA
:103F0000E003FF3FFF3F0000000000000000000052
:103F1000000000000000FC1FFC1F7C007C007C00F7
:103F20007C007C007C007C007C007C007C007C00B1
:103F300078007800F838F03FC03F00000000000033
:103F4000000000000000000000001F3C1E3C3C3C44
:103F5000783CF03CE03DE03FC03F803FC03FE03F69
:103F6000F03DF03C783C7C3C3E3C1F3C0F3C00006C
:103F70000000000000000000000000000000003E03
:103F8000003E003E003E003E003E003E003E003E41
:103F9000003E003E003E003E003E003E003EFF3F31
:103FA000FF3F0000000000000000000000000000D3
:103FB00000001FF81FFC1FFC3FFE3FFE3FFE7FFF7F
:103FC00077FF77FFF7F7E7F7E7F3E7F3C7F307F0D4
:103FD00007F007F007F000000000000000000000FC
:103FE0000000000000000F7C0F7C0F7E0F7F0F7F12
:103FF0008F7F8F7FCF7FEF7BEF79FF79FF78FF781F
:104000007F783F783F781F781F780000000000001D
:1040100000000000000000000000F007FC1F3E3E12
:104020001F7C0F780F780FF80FF80FF80FF80FF8C4
:104030000FF80F780F781F7C3E3EFC1FF007000042
:104040000000000000000000000000000000FC3F35
:10405000FF3F1F3E0F3E0F3E0F3E0F3E1F3E3F3EB7
:10406000FC3FF03F003E003E003E003E003E003E72
:10407000003E000000000000000000000000000002
:104080000000F007FC1F3E3E1F7C0F780F780FF8F2
:104090000FF80FF80FF80FF80FF80F780F781F7C54
:1040A0003E3EFC1FF8077C003F000F0003000000AD
:1040B000000000000000F03FFC3F7E3C3E3C1E3C08
:1040C0001E3C3E3C3C3CFC3CF03FE03FF03DF83CBD
:1040D0007C3C3E3C1E3C1F3C0F3C000000000000AE
:1040E00000000000000000000000FC07FE1F0E3E64
:1040F000003C003C003C003EC01FF80FFE037F0068
:104100001F000F000F001F203E3CFC3FF01F00006F
:104110000000000000000000000000000000FFFFA1
:10412000FFFFE003E003E003E003E003E003E0035C
:10413000E003E003E003E003E003E003E003E00367
:10414000E00300000000000000000000000000008C
:1041500000000F7C0F7C0F7C0F7C0F7C0F7C0F7C92
:104160000F7C0F7C0F7C0F7C0F7C0F7C1E3C1E3C59
:104170003E3EFC1FF00700000000000000000000B1
:1041800000000000000007F007F007F80F780F7C30
:104190001E3C1E3C1E3E3C1E3C1F781F780FF80F35
:1041A000F007F007F007E003E00300000000000064
:1041B0000000000000000000000003E003F003F036
:1041C00007F0E7F3E7F3E7F3E773F77BF77FFF7FAA
:1041D0007F7F7F7F7E7F7E3F3E3E3E3E3E3E0000B5
:1041E000000000000000000000000000000007F8D0
:1041F0000F7C1E3E3E3E3C1FF80FF007E007E00339
:10420000E003F007F80F7C0F7C1E3E3C1F780F7810
:104210000FF000000000000000000000000000009F
:10422000000007F807780F7C1E3C1E3E3C1F780FED
:10423000F80FF007E003E003E003E003E003E0032E
:10424000E003E003E00300000000000000000000C5
:10425000000000000000FF7FFF7F0F001F003E00F6
:104260007C00F800F000E001E003C007800F000FC1
:10427000001E003E007CFF7FFF7F0000000000006A
:1042800000000000FF078007800780078007800785
:1042900080078007800780078007800780078007E6
:1042A00080078007800780078007800780078007D6
:1042B0008007FF07FF07000000780078003C003C03
:1042C000001E001E000F000F80078007C003C00300
:1042D000E001E001F000F000780078003C003C00D4
:1042E0001E001E000F000F0007000000F07FF0000E
:1042F000F000F000F000F000F000F000F000F0003E
:10430000F000F000F000F000F000F000F000F0002D
:10431000F000F000F000F000F000F07FF07F00000F
:10432000C000C001C001E003E003F007F007780718
:10433000780F380F3C1E3C1E1E3C1E3C0F380F7879
:1043400007780000000000000000000000000000EE
:10435000000000000000000000000000000000005D
:10436000000000000000000000000000000000004D
:104370000000000000000000000000000000FFFF3F
:10438000FFFF000000000000F0000000000000003F
:10439000000000000000000000000000000000001D
:1043A000000000000000000000000000000000000D
:1043B00000000000000000000000000000000000FD
:1043C0000000000000000000F80FFC3F7C3C3E00B5
:1043D0003E003E00FE07FE1F3E3E3E7C3E783E7C99
:1043E0007E7CFF3FCF1F00000000000000000000A7
:1043F000003C003C003C003C003C003CF83DFE3FE3
:104400003E3F1F3E0F3C0F3C0F3C0F3C0F3C0F3C10
:104410001F3C1E3C3E3FFC3FF03B00000000000004
:10442000000000000000000000000000000000008C
:10443000FE03FF0F871F003E003E003C007C007C17
:10444000007C003C003E003E871FFF0FFE03000083
:1044500000000000000000001F001F001F001F00E0
:104460001F001F00FF07FF1F3F3E1F3C1F7C1F7CDC
:104470001F7C1F781F781F7C1F7C3F3C7F3EFF1FE7
:10448000DF0F00000000000000000000000000003E
:104490000000000000000000F803FC0F3E1F1E3E5D
:1044A0001F3C1F7CFF7FFF7F007C007C003C003EA8
:1044B000071FFF0FFE0300000000000000000000C7
:1044C000FF01E103C003C007C007C007FF7FFF7FF4
:1044D000C007C007C007C007C007C007C007C007A4
:1044E000C007C007C007C007C007000000000000E9
:1044F00000000000000000000000000000000000BC
:10450000EF07FF1F7F3E1F3C1F7C1F7C1F781F781B
:104510001F781F7C1F7C3F3C7F3EFF1FDF0F1E006C
:104520001E001E007C38F83F003C003C003C003C74
:10453000003C003CFC3DFE3F9E3F1F3F1F3E1F3C9A
:104540001F3C1F3C1F3C1F3C1F3C1F3C1F3C1F3C93
:104550001F3C00000000000000000000F001F0011E
:104560000000000000000000E07FE07FE001E001CB
:10457000E001E001E001E001E001E001E001E00133
:10458000E001E001E0010000000000000000000088
:10459000F800F8000000000000000000F83FF83FBD
:1045A000F800F800F800F800F800F800F800F8004B
:1045B000F800F800F800F800F800F800F800F00043
:1045C000F071E07F003C003C003C003C003C003CC3
:1045D0001F3C3E3C7C3CF83CF03DE03DC03FC03FD2
:1045E000E03FF03DF83C7C3C3E3C1F3C1F3C000063
:1045F0000000000000000000F07FF001F001F00179
:10460000F001F001F001F001F001F001F001F00122
:10461000F001F001F001F001F001F001F001F00112
:10462000F001000000000000000000000000000099
:1046300000000000000000009EF7FFFFFFFFFFFFEB
:10464000E7FBE7F9C7F1C7F1C7F1C7F1C7F1C7F158
:10465000C7F1C7F1C7F10000000000000000000032
:10466000000000000000000000000000FC3DFE3FD4
:104670009E3F1F3F1F3E1F3C1F3C1F3C1F3C1F3CDB
:104680001F3C1F3C1F3C1F3C1F3C00000000000063
:10469000000000000000000000000000000000001A
:1046A000F007FC1F3E3E1F3C1F7C0F780F780F78F1
:1046B0000F780F781F7C1F3C3E3EFC1FF007000068
:1046C00000000000000000000000000000000000EA
:1046D00000000000F83DFE3F3E3F1F3E0F3C0F3CF8
:1046E0000F3C0F3C0F3C0F3C1F3C1E3E3E3FFC3F2F
:1046F000F83F003C003C003C003C003C0000000057
:104700000000000000000000EE07FE1F7E3E1E3C81
:104710001E7C1E781E781E781E781E781E7C3E7CBD
:104720007E3EFE1FDE0F1E001E001E001E001E002D
:104730000000000000000000000000007F1FFF1FBD
:10474000E71FC71F871F001F001F001F001F001F3C
:10475000001F001F001F001F001F000000000000BE
:104760000000000000000000000000000000000049
:10477000FC07FE1F0E1E003E003E003FE01FFC0730
:10478000FE003E001E001E003E3CFC3FF01F0000ED
:104790000000000000000000000000000000800792
:1047A00080078007FF7FFF7F8007800780078007E3
:1047B000800780078007800780078007C007FF0306
:1047C000FF010000000000000000000000000000E9
:1047D00000000000000000001E3C1E3C1E3C1E3C71
:1047E0001E3C1E3C1E3C1E3C1E3C1E3C3E3C7E3C79
:1047F000FE3EFE1FDE0F0000000000000000000073
:1048000000000000000000000000000007F00F782A
:104810000F781E3C1E3C1E3E3C1E3C1E780F780F3F
:10482000F00FF007F007E003E003000000000000D5
:104830000000000000000000000000000000000078
:1048400003F0E3F1E3F3E7F3F7F3F7F3F77F777FB1
:104850007F7F7F7F7F7F3E3E3E3E3E3E3E3E00006E
:104860000000000000000000000000000000000048
:10487000000000000F7C1E3E3C3E3C1FF80FF0077E
:10488000F007E003F007F807F80F7C1E3E3E1F3CE0
:104890001F78000000000000000000000000000081
:1048A000000000000000000007F80F780F7C1E3C9D
:1048B0001E3C3C1E3C1E3C1F780FF80FF007F00713
:1048C000E003E003C003C003C0038007800F007F44
:1048D000000000000000000000000000FF3FFF3F5C
:1048E0001F003E007C00F800F001E003C007800FCD
:1048F000001F001E003CFF7FFF7F00000000000043
:1049000000000000FE01E003C003C003C003C003B9
:10491000E001E001E001C001C003803F803FC0032F
:10492000C001E001E001E001C003C003C003C00317
:10493000E003FE017E000000C001C001C001C00113
:10494000C001C001C001C001C001C001C001C0015F
:10495000C001C001C001C001C001C001C001C0014F
:10496000C001C001C001C001C0010000C03FE003A0
:10497000E001E001E001E001C001C003C003C001AB
:10498000E001FE00FE00E001C001C003C003C00161
:10499000E001E001E001E001E003C03F003F000072
:1049A0000000000000000000000000000000000007
:1049B000000000000000073FC77FE773FFF17EF0B3
:1049C00000000000000000000000000000000000E7
:1049D00000000000F449000800000020580000001A
:1049E000882200084C4A000858000020780900007E
:1049F00098220008010000001000000000000000E4
:104A00000024F4000000000000000000070A00007D
:104A10001C2F0008101A0000883600080000000053
:104A20000000000000000000000000000000000086
:104A30000000000000000000000000000000000076
:0C4A40000000000000000000000000006A
:040000050800018965
:00000001FF
